{
  "contractName": "DefaultReverseResolver",
  "abi": [
    {
      "constant": true,
      "inputs": [],
      "name": "ens",
      "outputs": [
        {
          "name": "",
          "type": "address"
        }
      ],
      "payable": false,
      "stateMutability": "view",
      "type": "function"
    },
    {
      "constant": true,
      "inputs": [
        {
          "name": "",
          "type": "bytes32"
        }
      ],
      "name": "name",
      "outputs": [
        {
          "name": "",
          "type": "string"
        }
      ],
      "payable": false,
      "stateMutability": "view",
      "type": "function"
    },
    {
      "inputs": [
        {
          "name": "ensAddr",
          "type": "address"
        }
      ],
      "payable": false,
      "stateMutability": "nonpayable",
      "type": "constructor"
    },
    {
      "constant": false,
      "inputs": [
        {
          "name": "node",
          "type": "bytes32"
        },
        {
          "name": "_name",
          "type": "string"
        }
      ],
      "name": "setName",
      "outputs": [],
      "payable": false,
      "stateMutability": "nonpayable",
      "type": "function"
    }
  ],
  "bytecode": "0x608060405234801561001057600080fd5b50604051602080610732833981018060405281019080805190602001909291905050506000816000806101000a81548173ffffffffffffffffffffffffffffffffffffffff021916908373ffffffffffffffffffffffffffffffffffffffff1602179055506000809054906101000a900473ffffffffffffffffffffffffffffffffffffffff1673ffffffffffffffffffffffffffffffffffffffff166302571be37f91d1777781884d03a6757a803996e38de2a42967fb37eeaca72729271025a9e26001026040518263ffffffff167c0100000000000000000000000000000000000000000000000000000000028152600401808260001916600019168152602001915050602060405180830381600087803b15801561013057600080fd5b505af1158015610144573d6000803e3d6000fd5b505050506040513d602081101561015a57600080fd5b8101908080519060200190929190505050905060008173ffffffffffffffffffffffffffffffffffffffff16141515610265578073ffffffffffffffffffffffffffffffffffffffff16631e83409a336040518263ffffffff167c0100000000000000000000000000000000000000000000000000000000028152600401808273ffffffffffffffffffffffffffffffffffffffff1673ffffffffffffffffffffffffffffffffffffffff168152602001915050602060405180830381600087803b15801561022857600080fd5b505af115801561023c573d6000803e3d6000fd5b505050506040513d602081101561025257600080fd5b8101908080519060200190929190505050505b50506104bc806102766000396000f300608060405260043610610057576000357c0100000000000000000000000000000000000000000000000000000000900463ffffffff1680633f15457f1461005c578063691f3431146100b3578063773722131461015d575b600080fd5b34801561006857600080fd5b506100716101d4565b604051808273ffffffffffffffffffffffffffffffffffffffff1673ffffffffffffffffffffffffffffffffffffffff16815260200191505060405180910390f35b3480156100bf57600080fd5b506100e260048036038101908080356000191690602001909291905050506101f9565b6040518080602001828103825283818151815260200191508051906020019080838360005b83811015610122578082015181840152602081019050610107565b50505050905090810190601f16801561014f5780820380516001836020036101000a031916815260200191505b509250505060405180910390f35b34801561016957600080fd5b506101d26004803603810190808035600019169060200190929190803590602001908201803590602001908080601f01602080910402602001604051908101604052809392919081815260200183838082843782019150505050505091929192905050506102a9565b005b6000809054906101000a900473ffffffffffffffffffffffffffffffffffffffff1681565b60016020528060005260406000206000915090508054600181600116156101000203166002900480601f0160208091040260200160405190810160405280929190818152602001828054600181600116156101000203166002900480156102a15780601f10610276576101008083540402835291602001916102a1565b820191906000526020600020905b81548152906001019060200180831161028457829003601f168201915b505050505081565b816000809054906101000a900473ffffffffffffffffffffffffffffffffffffffff1673ffffffffffffffffffffffffffffffffffffffff166302571be3826040518263ffffffff167c0100000000000000000000000000000000000000000000000000000000028152600401808260001916600019168152602001915050602060405180830381600087803b15801561034257600080fd5b505af1158015610356573d6000803e3d6000fd5b505050506040513d602081101561036c57600080fd5b810190808051906020019092919050505073ffffffffffffffffffffffffffffffffffffffff163373ffffffffffffffffffffffffffffffffffffffff161415156103b657600080fd5b8160016000856000191660001916815260200190815260200160002090805190602001906103e59291906103eb565b50505050565b828054600181600116156101000203166002900490600052602060002090601f016020900481019282601f1061042c57805160ff191683800117855561045a565b8280016001018555821561045a579182015b8281111561045957825182559160200191906001019061043e565b5b509050610467919061046b565b5090565b61048d91905b80821115610489576000816000905550600101610471565b5090565b905600a165627a7a723058208fd106ed4f7c01875bc21f37d3635286cf5b3ceaccb39f46a9624c444943237c0029",
  "source": "pragma solidity ^0.4.18;\n\nimport \"./ReverseRegistrar.sol\";\n\n/**\n * @dev Provides a default implementation of a resolver for reverse records,\n * which permits only the owner to update it.\n */\ncontract DefaultReverseResolver is Resolver {\n    // namehash('addr.reverse')\n    bytes32 constant ADDR_REVERSE_NODE = 0x91d1777781884d03a6757a803996e38de2a42967fb37eeaca72729271025a9e2;\n\n    ENS public ens;\n    mapping (bytes32 => string) public name;\n\n    /**\n     * @dev Only permits calls by the reverse registrar.\n     * @param node The node permission is required for.\n     */\n    modifier owner_only(bytes32 node) {\n        require(msg.sender == ens.owner(node));\n        _;\n    }\n\n    /**\n     * @dev Constructor\n     * @param ensAddr The address of the ENS registry.\n     */\n    function DefaultReverseResolver(ENS ensAddr) public {\n        ens = ensAddr;\n\n        // Assign ownership of the reverse record to our deployer\n        ReverseRegistrar registrar = ReverseRegistrar(ens.owner(ADDR_REVERSE_NODE));\n        if (address(registrar) != 0) {\n            registrar.claim(msg.sender);\n        }\n    }\n\n    /**\n     * @dev Sets the name for a node.\n     * @param node The node to update.\n     * @param _name The name to set.\n     */\n    function setName(bytes32 node, string _name) public owner_only(node) {\n        name[node] = _name;\n    }\n}\n",
  "sourcePath": "/Users/billy/sol/ens/ens-nifty-contracts/contracts/@ensdomains/ens/contracts/DefaultReverseResolver.sol",
  "compiler": {
    "name": "solc",
    "version": "0.4.24+commit.e67f0147.Emscripten.clang"
  },
  "schemaVersion": "2.0.1",
  "updatedAt": "2018-09-19T22:00:24.654Z"
}