{
  "contractName": "DNSResolver",
  "abi": [
    {
      "constant": true,
      "inputs": [],
      "name": "owner",
      "outputs": [
        {
          "name": "",
          "type": "address"
        }
      ],
      "payable": false,
      "stateMutability": "view",
      "type": "function"
    },
    {
      "inputs": [],
      "payable": false,
      "stateMutability": "nonpayable",
      "type": "constructor"
    },
    {
      "constant": false,
      "inputs": [
        {
          "name": "node",
          "type": "bytes32"
        },
        {
          "name": "data",
          "type": "bytes"
        }
      ],
      "name": "setDnsrr",
      "outputs": [],
      "payable": false,
      "stateMutability": "nonpayable",
      "type": "function"
    },
    {
      "constant": true,
      "inputs": [
        {
          "name": "node",
          "type": "bytes32"
        }
      ],
      "name": "dnsrr",
      "outputs": [
        {
          "name": "",
          "type": "bytes"
        }
      ],
      "payable": false,
      "stateMutability": "view",
      "type": "function"
    },
    {
      "constant": true,
      "inputs": [
        {
          "name": "interfaceID",
          "type": "bytes4"
        }
      ],
      "name": "supportsInterface",
      "outputs": [
        {
          "name": "",
          "type": "bool"
        }
      ],
      "payable": false,
      "stateMutability": "pure",
      "type": "function"
    }
  ],
  "bytecode": "0x608060405234801561001057600080fd5b50336000806101000a81548173ffffffffffffffffffffffffffffffffffffffff021916908373ffffffffffffffffffffffffffffffffffffffff1602179055506104d3806100606000396000f300608060405260043610610062576000357c0100000000000000000000000000000000000000000000000000000000900463ffffffff16806301ffc9a714610067578063126a710e146100cb57806376196c88146101755780638da5cb5b146101ec575b600080fd5b34801561007357600080fd5b506100b160048036038101908080357bffffffffffffffffffffffffffffffffffffffffffffffffffffffff19169060200190929190505050610243565b604051808215151515815260200191505060405180910390f35b3480156100d757600080fd5b506100fa6004803603810190808035600019169060200190929190505050610291565b6040518080602001828103825283818151815260200191508051906020019080838360005b8381101561013a57808201518184015260208101905061011f565b50505050905090810190601f1680156101675780820380516001836020036101000a031916815260200191505b509250505060405180910390f35b34801561018157600080fd5b506101ea6004803603810190808035600019169060200190929190803590602001908201803590602001908080601f016020809104026020016040519081016040528093929190818152602001838380828437820191505050505050919291929050505061034e565b005b3480156101f857600080fd5b506102016103dd565b604051808273ffffffffffffffffffffffffffffffffffffffff1673ffffffffffffffffffffffffffffffffffffffff16815260200191505060405180910390f35b600063126a710e7c010000000000000000000000000000000000000000000000000000000002827bffffffffffffffffffffffffffffffffffffffffffffffffffffffff1916149050919050565b60606001600083600019166000191681526020019081526020016000208054600181600116156101000203166002900480601f0160208091040260200160405190810160405280929190818152602001828054600181600116156101000203166002900480156103425780601f1061031757610100808354040283529160200191610342565b820191906000526020600020905b81548152906001019060200180831161032557829003601f168201915b50505050509050919050565b6000809054906101000a900473ffffffffffffffffffffffffffffffffffffffff1673ffffffffffffffffffffffffffffffffffffffff163373ffffffffffffffffffffffffffffffffffffffff161415156103a957600080fd5b8060016000846000191660001916815260200190815260200160002090805190602001906103d8929190610402565b505050565b6000809054906101000a900473ffffffffffffffffffffffffffffffffffffffff1681565b828054600181600116156101000203166002900490600052602060002090601f016020900481019282601f1061044357805160ff1916838001178555610471565b82800160010185558215610471579182015b82811115610470578251825591602001919060010190610455565b5b50905061047e9190610482565b5090565b6104a491905b808211156104a0576000816000905550600101610488565b5090565b905600a165627a7a72305820fbd3f17df32779cc3020b6664a14a6a61e1dbfb42a8ce6bfa3db634d86cdad2f0029",
  "source": "pragma solidity ^0.4.18;\n\ncontract DNSResolver {\n    address public owner;\n    mapping (bytes32 => bytes) zones;\n\n    modifier owner_only {\n        require(msg.sender == owner);\n        _;\n    }\n    \n    function DNSResolver() public {\n        owner = msg.sender;\n    }\n\n    function setDnsrr(bytes32 node, bytes data) public owner_only {\n        zones[node] = data;\n    }\n\n    function dnsrr(bytes32 node) public view returns (bytes) {\n        return zones[node];\n    }\n\n    function supportsInterface(bytes4 interfaceID) public pure returns (bool) {\n        return interfaceID == 0x126a710e;\n    }\n}\n",
  "sourcePath": "/Users/billy/sol/ens/ens-nifty-contracts/contracts/@ensdomains/ens/contracts/DNSResolver.sol",
  "compiler": {
    "name": "solc",
    "version": "0.4.24+commit.e67f0147.Emscripten.clang"
  },
  "schemaVersion": "2.0.1",
  "updatedAt": "2018-09-19T22:00:24.732Z"
}