{
  "contractName": "ENSNFT",
  "abi": [
    {
      "constant": true,
      "inputs": [
        {
          "name": "_interfaceId",
          "type": "bytes4"
        }
      ],
      "name": "supportsInterface",
      "outputs": [
        {
          "name": "",
          "type": "bool"
        }
      ],
      "payable": false,
      "stateMutability": "view",
      "type": "function"
    },
    {
      "constant": true,
      "inputs": [],
      "name": "name",
      "outputs": [
        {
          "name": "",
          "type": "string"
        }
      ],
      "payable": false,
      "stateMutability": "view",
      "type": "function"
    },
    {
      "constant": true,
      "inputs": [
        {
          "name": "_tokenId",
          "type": "uint256"
        }
      ],
      "name": "getApproved",
      "outputs": [
        {
          "name": "",
          "type": "address"
        }
      ],
      "payable": false,
      "stateMutability": "view",
      "type": "function"
    },
    {
      "constant": false,
      "inputs": [
        {
          "name": "_to",
          "type": "address"
        },
        {
          "name": "_tokenId",
          "type": "uint256"
        }
      ],
      "name": "approve",
      "outputs": [],
      "payable": false,
      "stateMutability": "nonpayable",
      "type": "function"
    },
    {
      "constant": true,
      "inputs": [],
      "name": "totalSupply",
      "outputs": [
        {
          "name": "",
          "type": "uint256"
        }
      ],
      "payable": false,
      "stateMutability": "view",
      "type": "function"
    },
    {
      "constant": true,
      "inputs": [],
      "name": "InterfaceId_ERC165",
      "outputs": [
        {
          "name": "",
          "type": "bytes4"
        }
      ],
      "payable": false,
      "stateMutability": "view",
      "type": "function"
    },
    {
      "constant": false,
      "inputs": [
        {
          "name": "_from",
          "type": "address"
        },
        {
          "name": "_to",
          "type": "address"
        },
        {
          "name": "_tokenId",
          "type": "uint256"
        }
      ],
      "name": "transferFrom",
      "outputs": [],
      "payable": false,
      "stateMutability": "nonpayable",
      "type": "function"
    },
    {
      "constant": true,
      "inputs": [
        {
          "name": "_owner",
          "type": "address"
        },
        {
          "name": "_index",
          "type": "uint256"
        }
      ],
      "name": "tokenOfOwnerByIndex",
      "outputs": [
        {
          "name": "",
          "type": "uint256"
        }
      ],
      "payable": false,
      "stateMutability": "view",
      "type": "function"
    },
    {
      "constant": false,
      "inputs": [
        {
          "name": "_from",
          "type": "address"
        },
        {
          "name": "_to",
          "type": "address"
        },
        {
          "name": "_tokenId",
          "type": "uint256"
        }
      ],
      "name": "safeTransferFrom",
      "outputs": [],
      "payable": false,
      "stateMutability": "nonpayable",
      "type": "function"
    },
    {
      "constant": true,
      "inputs": [
        {
          "name": "_tokenId",
          "type": "uint256"
        }
      ],
      "name": "exists",
      "outputs": [
        {
          "name": "",
          "type": "bool"
        }
      ],
      "payable": false,
      "stateMutability": "view",
      "type": "function"
    },
    {
      "constant": true,
      "inputs": [
        {
          "name": "_index",
          "type": "uint256"
        }
      ],
      "name": "tokenByIndex",
      "outputs": [
        {
          "name": "",
          "type": "uint256"
        }
      ],
      "payable": false,
      "stateMutability": "view",
      "type": "function"
    },
    {
      "constant": true,
      "inputs": [
        {
          "name": "_tokenId",
          "type": "uint256"
        }
      ],
      "name": "ownerOf",
      "outputs": [
        {
          "name": "",
          "type": "address"
        }
      ],
      "payable": false,
      "stateMutability": "view",
      "type": "function"
    },
    {
      "constant": true,
      "inputs": [
        {
          "name": "_owner",
          "type": "address"
        }
      ],
      "name": "balanceOf",
      "outputs": [
        {
          "name": "",
          "type": "uint256"
        }
      ],
      "payable": false,
      "stateMutability": "view",
      "type": "function"
    },
    {
      "constant": true,
      "inputs": [],
      "name": "symbol",
      "outputs": [
        {
          "name": "",
          "type": "string"
        }
      ],
      "payable": false,
      "stateMutability": "view",
      "type": "function"
    },
    {
      "constant": false,
      "inputs": [
        {
          "name": "_to",
          "type": "address"
        },
        {
          "name": "_approved",
          "type": "bool"
        }
      ],
      "name": "setApprovalForAll",
      "outputs": [],
      "payable": false,
      "stateMutability": "nonpayable",
      "type": "function"
    },
    {
      "constant": false,
      "inputs": [
        {
          "name": "_from",
          "type": "address"
        },
        {
          "name": "_to",
          "type": "address"
        },
        {
          "name": "_tokenId",
          "type": "uint256"
        },
        {
          "name": "_data",
          "type": "bytes"
        }
      ],
      "name": "safeTransferFrom",
      "outputs": [],
      "payable": false,
      "stateMutability": "nonpayable",
      "type": "function"
    },
    {
      "constant": true,
      "inputs": [
        {
          "name": "_owner",
          "type": "address"
        },
        {
          "name": "_operator",
          "type": "address"
        }
      ],
      "name": "isApprovedForAll",
      "outputs": [
        {
          "name": "",
          "type": "bool"
        }
      ],
      "payable": false,
      "stateMutability": "view",
      "type": "function"
    },
    {
      "inputs": [
        {
          "name": "_name",
          "type": "string"
        },
        {
          "name": "_symbol",
          "type": "string"
        },
        {
          "name": "_registrar",
          "type": "address"
        },
        {
          "name": "_metadata",
          "type": "address"
        }
      ],
      "payable": false,
      "stateMutability": "nonpayable",
      "type": "constructor"
    },
    {
      "anonymous": false,
      "inputs": [
        {
          "indexed": true,
          "name": "_from",
          "type": "address"
        },
        {
          "indexed": true,
          "name": "_to",
          "type": "address"
        },
        {
          "indexed": true,
          "name": "_tokenId",
          "type": "uint256"
        }
      ],
      "name": "Transfer",
      "type": "event"
    },
    {
      "anonymous": false,
      "inputs": [
        {
          "indexed": true,
          "name": "_owner",
          "type": "address"
        },
        {
          "indexed": true,
          "name": "_approved",
          "type": "address"
        },
        {
          "indexed": true,
          "name": "_tokenId",
          "type": "uint256"
        }
      ],
      "name": "Approval",
      "type": "event"
    },
    {
      "anonymous": false,
      "inputs": [
        {
          "indexed": true,
          "name": "_owner",
          "type": "address"
        },
        {
          "indexed": true,
          "name": "_operator",
          "type": "address"
        },
        {
          "indexed": false,
          "name": "_approved",
          "type": "bool"
        }
      ],
      "name": "ApprovalForAll",
      "type": "event"
    },
    {
      "constant": true,
      "inputs": [],
      "name": "getMetadata",
      "outputs": [
        {
          "name": "",
          "type": "address"
        }
      ],
      "payable": false,
      "stateMutability": "view",
      "type": "function"
    },
    {
      "constant": true,
      "inputs": [
        {
          "name": "_tokenId",
          "type": "uint256"
        }
      ],
      "name": "tokenURI",
      "outputs": [
        {
          "name": "_infoUrl",
          "type": "string"
        }
      ],
      "payable": false,
      "stateMutability": "view",
      "type": "function"
    },
    {
      "constant": false,
      "inputs": [
        {
          "name": "_hash",
          "type": "bytes32"
        }
      ],
      "name": "mint",
      "outputs": [],
      "payable": false,
      "stateMutability": "nonpayable",
      "type": "function"
    },
    {
      "constant": false,
      "inputs": [
        {
          "name": "tokenId",
          "type": "uint256"
        }
      ],
      "name": "burn",
      "outputs": [],
      "payable": false,
      "stateMutability": "nonpayable",
      "type": "function"
    }
  ],
  "bytecode": "0x60806040523480156200001157600080fd5b5060405162002b9d38038062002b9d833981018060405262000037919081019062000421565b8383620000766301ffc9a77c0100000000000000000000000000000000000000000000000000000000026200022a640100000000026401000000009004565b620000b36380ac58cd7c0100000000000000000000000000000000000000000000000000000000026200022a640100000000026401000000009004565b620000f0634f558e797c0100000000000000000000000000000000000000000000000000000000026200022a640100000000026401000000009004565b816005908051906020019062000108929190620002e8565b50806006908051906020019062000121929190620002e8565b506200015f63780e9d637c0100000000000000000000000000000000000000000000000000000000026200022a640100000000026401000000009004565b6200019c635b5e139f7c0100000000000000000000000000000000000000000000000000000000026200022a640100000000026401000000009004565b505081600d60006101000a81548173ffffffffffffffffffffffffffffffffffffffff021916908373ffffffffffffffffffffffffffffffffffffffff16021790555080600c60006101000a81548173ffffffffffffffffffffffffffffffffffffffff021916908373ffffffffffffffffffffffffffffffffffffffff1602179055505050505062000598565b63ffffffff7c010000000000000000000000000000000000000000000000000000000002817bffffffffffffffffffffffffffffffffffffffffffffffffffffffff1916141515156200027c57600080fd5b6001600080837bffffffffffffffffffffffffffffffffffffffffffffffffffffffff19167bffffffffffffffffffffffffffffffffffffffffffffffffffffffff1916815260200190815260200160002060006101000a81548160ff02191690831515021790555050565b828054600181600116156101000203166002900490600052602060002090601f016020900481019282601f106200032b57805160ff19168380011785556200035c565b828001600101855582156200035c579182015b828111156200035b5782518255916020019190600101906200033e565b5b5090506200036b91906200036f565b5090565b6200039491905b808211156200039057600081600090555060010162000376565b5090565b90565b6000620003a582516200053a565b905092915050565b6000620003bb82516200054e565b905092915050565b600082601f8301121515620003d757600080fd5b8151620003ee620003e882620004ed565b620004bf565b915080825260208301602083018583830111156200040b57600080fd5b6200041883828462000562565b50505092915050565b600080600080608085870312156200043857600080fd5b600085015167ffffffffffffffff8111156200045357600080fd5b6200046187828801620003c3565b945050602085015167ffffffffffffffff8111156200047f57600080fd5b6200048d87828801620003c3565b9350506040620004a087828801620003ad565b9250506060620004b38782880162000397565b91505092959194509250565b6000604051905081810181811067ffffffffffffffff82111715620004e357600080fd5b8060405250919050565b600067ffffffffffffffff8211156200050557600080fd5b601f19601f8301169050602081019050919050565b600073ffffffffffffffffffffffffffffffffffffffff82169050919050565b600062000547826200051a565b9050919050565b60006200055b826200051a565b9050919050565b60005b838110156200058257808201518184015260208101905062000565565b8381111562000592576000848401525b50505050565b6125f580620005a86000396000f30060806040526004361061011d576000357c0100000000000000000000000000000000000000000000000000000000900463ffffffff16806301ffc9a71461012257806306fdde031461015f578063081812fc1461018a578063095ea7b3146101c757806318160ddd146101f057806319fa8f501461021b57806323b872dd146102465780632f745c591461026f57806342842e0e146102ac57806342966c68146102d55780634f558e79146102fe5780634f6ccce71461033b5780636352211e1461037857806370a08231146103b55780637a5b4f59146103f257806395d89b411461041d578063a22cb46514610448578063adf2cead14610471578063b88d4fde1461049a578063c87b56dd146104c3578063e985e9c514610500575b600080fd5b34801561012e57600080fd5b5061014960048036036101449190810190612141565b61053d565b6040516101569190612351565b60405180910390f35b34801561016b57600080fd5b506101746105a4565b60405161018191906123cb565b60405180910390f35b34801561019657600080fd5b506101b160048036036101ac919081019061220a565b610646565b6040516101be91906122ea565b60405180910390f35b3480156101d357600080fd5b506101ee60048036036101e991908101906120dc565b610683565b005b3480156101fc57600080fd5b506102056107c8565b60405161021291906123ed565b60405180910390f35b34801561022757600080fd5b506102306107d5565b60405161023d91906123b0565b60405180910390f35b34801561025257600080fd5b5061026d60048036036102689190810190611fd6565b6107fc565b005b34801561027b57600080fd5b50610296600480360361029191908101906120dc565b610907565b6040516102a391906123ed565b60405180910390f35b3480156102b857600080fd5b506102d360048036036102ce9190810190611fd6565b61097e565b005b3480156102e157600080fd5b506102fc60048036036102f7919081019061220a565b61099f565b005b34801561030a57600080fd5b506103256004803603610320919081019061220a565b610a9c565b6040516103329190612351565b60405180910390f35b34801561034757600080fd5b50610362600480360361035d919081019061220a565b610b0e565b60405161036f91906123ed565b60405180910390f35b34801561038457600080fd5b5061039f600480360361039a919081019061220a565b610b46565b6040516103ac91906122ea565b60405180910390f35b3480156103c157600080fd5b506103dc60048036036103d79190810190611f48565b610bc4565b6040516103e991906123ed565b60405180910390f35b3480156103fe57600080fd5b50610407610c48565b60405161041491906122ea565b60405180910390f35b34801561042957600080fd5b50610432610c72565b60405161043f91906123cb565b60405180910390f35b34801561045457600080fd5b5061046f600480360361046a91908101906120a0565b610d14565b005b34801561047d57600080fd5b5061049860048036036104939190810190612118565b610e4c565b005b3480156104a657600080fd5b506104c160048036036104bc9190810190612025565b611188565b005b3480156104cf57600080fd5b506104ea60048036036104e5919081019061220a565b6111b0565b6040516104f791906123cb565b60405180910390f35b34801561050c57600080fd5b5061052760048036036105229190810190611f9a565b61121c565b6040516105349190612351565b60405180910390f35b6000806000837bffffffffffffffffffffffffffffffffffffffffffffffffffffffff19167bffffffffffffffffffffffffffffffffffffffffffffffffffffffff1916815260200190815260200160002060009054906101000a900460ff169050919050565b606060058054600181600116156101000203166002900480601f01602080910402602001604051908101604052809291908181526020018280546001816001161561010002031660029004801561063c5780601f106106115761010080835404028352916020019161063c565b820191906000526020600020905b81548152906001019060200180831161061f57829003601f168201915b5050505050905090565b60006002600083815260200190815260200160002060009054906101000a900473ffffffffffffffffffffffffffffffffffffffff169050919050565b600061068e82610b46565b90508073ffffffffffffffffffffffffffffffffffffffff168373ffffffffffffffffffffffffffffffffffffffff16141515156106cb57600080fd5b8073ffffffffffffffffffffffffffffffffffffffff163373ffffffffffffffffffffffffffffffffffffffff16148061070b575061070a813361121c565b5b151561071657600080fd5b826002600084815260200190815260200160002060006101000a81548173ffffffffffffffffffffffffffffffffffffffff021916908373ffffffffffffffffffffffffffffffffffffffff160217905550818373ffffffffffffffffffffffffffffffffffffffff168273ffffffffffffffffffffffffffffffffffffffff167f8c5be1e5ebec7d5bd14f71427d1e84f3dd0314c0f7b2291e5b200ac8c7c3b92560405160405180910390a4505050565b6000600980549050905090565b6301ffc9a77c01000000000000000000000000000000000000000000000000000000000281565b61080633826112b0565b151561081157600080fd5b600073ffffffffffffffffffffffffffffffffffffffff168373ffffffffffffffffffffffffffffffffffffffff161415151561084d57600080fd5b600073ffffffffffffffffffffffffffffffffffffffff168273ffffffffffffffffffffffffffffffffffffffff161415151561088957600080fd5b6108938382611345565b61089d8382611448565b6108a78282611604565b808273ffffffffffffffffffffffffffffffffffffffff168473ffffffffffffffffffffffffffffffffffffffff167fddf252ad1be2c89b69c2b068fc378daa952ba7f163c4a11628f55a4df523b3ef60405160405180910390a4505050565b600061091283610bc4565b8210151561091f57600080fd5b600760008473ffffffffffffffffffffffffffffffffffffffff1673ffffffffffffffffffffffffffffffffffffffff1681526020019081526020016000208281548110151561096b57fe5b9060005260206000200154905092915050565b61099a8383836020604051908101604052806000815250611188565b505050565b3373ffffffffffffffffffffffffffffffffffffffff166109bf82610b46565b73ffffffffffffffffffffffffffffffffffffffff161415156109e157600080fd5b6109eb33826116db565b600d60009054906101000a900473ffffffffffffffffffffffffffffffffffffffff1673ffffffffffffffffffffffffffffffffffffffff166379ce9fac82600102336040518363ffffffff167c0100000000000000000000000000000000000000000000000000000000028152600401610a67929190612387565b600060405180830381600087803b158015610a8157600080fd5b505af1158015610a95573d6000803e3d6000fd5b5050505050565b6000806001600084815260200190815260200160002060009054906101000a900473ffffffffffffffffffffffffffffffffffffffff169050600073ffffffffffffffffffffffffffffffffffffffff168173ffffffffffffffffffffffffffffffffffffffff161415915050919050565b6000610b186107c8565b82101515610b2557600080fd5b600982815481101515610b3457fe5b90600052602060002001549050919050565b6000806001600084815260200190815260200160002060009054906101000a900473ffffffffffffffffffffffffffffffffffffffff169050600073ffffffffffffffffffffffffffffffffffffffff168173ffffffffffffffffffffffffffffffffffffffff1614151515610bbb57600080fd5b80915050919050565b60008073ffffffffffffffffffffffffffffffffffffffff168273ffffffffffffffffffffffffffffffffffffffff1614151515610c0157600080fd5b600360008373ffffffffffffffffffffffffffffffffffffffff1673ffffffffffffffffffffffffffffffffffffffff168152602001908152602001600020549050919050565b6000600c60009054906101000a900473ffffffffffffffffffffffffffffffffffffffff16905090565b606060068054600181600116156101000203166002900480601f016020809104026020016040519081016040528092919081815260200182805460018160011615610100020316600290048015610d0a5780601f10610cdf57610100808354040283529160200191610d0a565b820191906000526020600020905b815481529060010190602001808311610ced57829003601f168201915b5050505050905090565b3373ffffffffffffffffffffffffffffffffffffffff168273ffffffffffffffffffffffffffffffffffffffff1614151515610d4f57600080fd5b80600460003373ffffffffffffffffffffffffffffffffffffffff1673ffffffffffffffffffffffffffffffffffffffff16815260200190815260200160002060008473ffffffffffffffffffffffffffffffffffffffff1673ffffffffffffffffffffffffffffffffffffffff16815260200190815260200160002060006101000a81548160ff0219169083151502179055508173ffffffffffffffffffffffffffffffffffffffff163373ffffffffffffffffffffffffffffffffffffffff167f17307eab39ab6107e8899845ad3d59bd9653f200f220920489ca2b5937696c3183604051610e409190612351565b60405180910390a35050565b6000806000600d60009054906101000a900473ffffffffffffffffffffffffffffffffffffffff1673ffffffffffffffffffffffffffffffffffffffff1663267b6922856040518263ffffffff167c0100000000000000000000000000000000000000000000000000000000028152600401610ec8919061236c565b60a060405180830381600087803b158015610ee257600080fd5b505af1158015610ef6573d6000803e3d6000fd5b505050506040513d601f19601f82011682018060405250610f1a9190810190612193565b9091929350909150905050809350508291503073ffffffffffffffffffffffffffffffffffffffff168273ffffffffffffffffffffffffffffffffffffffff16638da5cb5b6040518163ffffffff167c0100000000000000000000000000000000000000000000000000000000028152600401602060405180830381600087803b158015610fa757600080fd5b505af1158015610fbb573d6000803e3d6000fd5b505050506040513d601f19601f82011682018060405250610fdf9190810190611f71565b73ffffffffffffffffffffffffffffffffffffffff1614151561100157600080fd5b3373ffffffffffffffffffffffffffffffffffffffff168273ffffffffffffffffffffffffffffffffffffffff1663674f220f6040518163ffffffff167c0100000000000000000000000000000000000000000000000000000000028152600401602060405180830381600087803b15801561107c57600080fd5b505af1158015611090573d6000803e3d6000fd5b505050506040513d601f19601f820116820180604052506110b49190810190611f71565b73ffffffffffffffffffffffffffffffffffffffff161415156110d657600080fd5b836001900490506111828273ffffffffffffffffffffffffffffffffffffffff1663674f220f6040518163ffffffff167c0100000000000000000000000000000000000000000000000000000000028152600401602060405180830381600087803b15801561114457600080fd5b505af1158015611158573d6000803e3d6000fd5b505050506040513d601f19601f8201168201806040525061117c9190810190611f71565b82611813565b50505050565b6111938484846107fc565b61119f8484848461186a565b15156111aa57600080fd5b50505050565b6060600060606111be610c48565b91506000368080601f0160208091040260200160405190810160405280939291908181526020018383808284378201915050505050509050600080825160208401855af43d604051816000823e8260008114611218578282f35b8282fd5b6000600460008473ffffffffffffffffffffffffffffffffffffffff1673ffffffffffffffffffffffffffffffffffffffff16815260200190815260200160002060008373ffffffffffffffffffffffffffffffffffffffff1673ffffffffffffffffffffffffffffffffffffffff16815260200190815260200160002060009054906101000a900460ff16905092915050565b6000806112bc83610b46565b90508073ffffffffffffffffffffffffffffffffffffffff168473ffffffffffffffffffffffffffffffffffffffff16148061132b57508373ffffffffffffffffffffffffffffffffffffffff1661131384610646565b73ffffffffffffffffffffffffffffffffffffffff16145b8061133c575061133b818561121c565b5b91505092915050565b8173ffffffffffffffffffffffffffffffffffffffff1661136582610b46565b73ffffffffffffffffffffffffffffffffffffffff1614151561138757600080fd5b600073ffffffffffffffffffffffffffffffffffffffff166002600083815260200190815260200160002060009054906101000a900473ffffffffffffffffffffffffffffffffffffffff1673ffffffffffffffffffffffffffffffffffffffff161415156114445760006002600083815260200190815260200160002060006101000a81548173ffffffffffffffffffffffffffffffffffffffff021916908373ffffffffffffffffffffffffffffffffffffffff1602179055505b5050565b600080600061145785856119ba565b600860008581526020019081526020016000205492506114c36001600760008873ffffffffffffffffffffffffffffffffffffffff1673ffffffffffffffffffffffffffffffffffffffff16815260200190815260200160002080549050611ae990919063ffffffff16565b9150600760008673ffffffffffffffffffffffffffffffffffffffff1673ffffffffffffffffffffffffffffffffffffffff1681526020019081526020016000208281548110151561151157fe5b9060005260206000200154905080600760008773ffffffffffffffffffffffffffffffffffffffff1673ffffffffffffffffffffffffffffffffffffffff1681526020019081526020016000208481548110151561156b57fe5b9060005260206000200181905550600760008673ffffffffffffffffffffffffffffffffffffffff1673ffffffffffffffffffffffffffffffffffffffff1681526020019081526020016000208054809190600190036115cb9190611da5565b50600060086000868152602001908152602001600020819055508260086000838152602001908152602001600020819055505050505050565b60006116108383611b02565b600760008473ffffffffffffffffffffffffffffffffffffffff1673ffffffffffffffffffffffffffffffffffffffff168152602001908152602001600020805490509050600760008473ffffffffffffffffffffffffffffffffffffffff1673ffffffffffffffffffffffffffffffffffffffff168152602001908152602001600020829080600181540180825580915050906001820390600052602060002001600090919290919091505550806008600084815260200190815260200160002081905550505050565b60008060006116ea8585611c5c565b6000600b600086815260200190815260200160002080546001816001161561010002031660029004905014151561173b57600b6000858152602001908152602001600020600061173a9190611dd1565b5b600a600085815260200190815260200160002054925061176a6001600980549050611ae990919063ffffffff16565b915060098281548110151561177b57fe5b906000526020600020015490508060098481548110151561179857fe5b906000526020600020018190555060006009838154811015156117b757fe5b906000526020600020018190555060098054809190600190036117da9190611da5565b506000600a60008681526020019081526020016000208190555082600a6000838152602001908152602001600020819055505050505050565b61181d8282611cd0565b600980549050600a60008381526020019081526020016000208190555060098190806001815401808255809150509060018203906000526020600020016000909192909190915055505050565b60008061188c8573ffffffffffffffffffffffffffffffffffffffff16611d76565b151561189b57600191506119b1565b8473ffffffffffffffffffffffffffffffffffffffff1663150b7a02338887876040518563ffffffff167c01000000000000000000000000000000000000000000000000000000000281526004016118f69493929190612305565b602060405180830381600087803b15801561191057600080fd5b505af1158015611924573d6000803e3d6000fd5b505050506040513d601f19601f82011682018060405250611948919081019061216a565b905063150b7a027c0100000000000000000000000000000000000000000000000000000000027bffffffffffffffffffffffffffffffffffffffffffffffffffffffff1916817bffffffffffffffffffffffffffffffffffffffffffffffffffffffff19161491505b50949350505050565b8173ffffffffffffffffffffffffffffffffffffffff166119da82610b46565b73ffffffffffffffffffffffffffffffffffffffff161415156119fc57600080fd5b611a4f6001600360008573ffffffffffffffffffffffffffffffffffffffff1673ffffffffffffffffffffffffffffffffffffffff16815260200190815260200160002054611ae990919063ffffffff16565b600360008473ffffffffffffffffffffffffffffffffffffffff1673ffffffffffffffffffffffffffffffffffffffff1681526020019081526020016000208190555060006001600083815260200190815260200160002060006101000a81548173ffffffffffffffffffffffffffffffffffffffff021916908373ffffffffffffffffffffffffffffffffffffffff1602179055505050565b6000828211151515611af757fe5b818303905092915050565b600073ffffffffffffffffffffffffffffffffffffffff166001600083815260200190815260200160002060009054906101000a900473ffffffffffffffffffffffffffffffffffffffff1673ffffffffffffffffffffffffffffffffffffffff16141515611b7057600080fd5b816001600083815260200190815260200160002060006101000a81548173ffffffffffffffffffffffffffffffffffffffff021916908373ffffffffffffffffffffffffffffffffffffffff160217905550611c156001600360008573ffffffffffffffffffffffffffffffffffffffff1673ffffffffffffffffffffffffffffffffffffffff16815260200190815260200160002054611d8990919063ffffffff16565b600360008473ffffffffffffffffffffffffffffffffffffffff1673ffffffffffffffffffffffffffffffffffffffff168152602001908152602001600020819055505050565b611c668282611345565b611c708282611448565b80600073ffffffffffffffffffffffffffffffffffffffff168373ffffffffffffffffffffffffffffffffffffffff167fddf252ad1be2c89b69c2b068fc378daa952ba7f163c4a11628f55a4df523b3ef60405160405180910390a45050565b600073ffffffffffffffffffffffffffffffffffffffff168273ffffffffffffffffffffffffffffffffffffffff1614151515611d0c57600080fd5b611d168282611604565b808273ffffffffffffffffffffffffffffffffffffffff16600073ffffffffffffffffffffffffffffffffffffffff167fddf252ad1be2c89b69c2b068fc378daa952ba7f163c4a11628f55a4df523b3ef60405160405180910390a45050565b600080823b905060008111915050919050565b60008183019050828110151515611d9c57fe5b80905092915050565b815481835581811115611dcc57818360005260206000209182019101611dcb9190611e19565b5b505050565b50805460018160011615610100020316600290046000825580601f10611df75750611e16565b601f016020900490600052602060002090810190611e159190611e19565b5b50565b611e3b91905b80821115611e37576000816000905550600101611e1f565b5090565b90565b6000611e4a82356124e3565b905092915050565b6000611e5e82516124e3565b905092915050565b6000611e728235612503565b905092915050565b6000611e86823561250f565b905092915050565b6000611e9a8235612519565b905092915050565b6000611eae8251612519565b905092915050565b600082601f8301121515611ec957600080fd5b8135611edc611ed782612435565b612408565b91508082526020830160208301858383011115611ef857600080fd5b611f03838284612568565b50505092915050565b6000611f188251612545565b905092915050565b6000611f2c823561255e565b905092915050565b6000611f40825161255e565b905092915050565b600060208284031215611f5a57600080fd5b6000611f6884828501611e3e565b91505092915050565b600060208284031215611f8357600080fd5b6000611f9184828501611e52565b91505092915050565b60008060408385031215611fad57600080fd5b6000611fbb85828601611e3e565b9250506020611fcc85828601611e3e565b9150509250929050565b600080600060608486031215611feb57600080fd5b6000611ff986828701611e3e565b935050602061200a86828701611e3e565b925050604061201b86828701611f20565b9150509250925092565b6000806000806080858703121561203b57600080fd5b600061204987828801611e3e565b945050602061205a87828801611e3e565b935050604061206b87828801611f20565b925050606085013567ffffffffffffffff81111561208857600080fd5b61209487828801611eb6565b91505092959194509250565b600080604083850312156120b357600080fd5b60006120c185828601611e3e565b92505060206120d285828601611e66565b9150509250929050565b600080604083850312156120ef57600080fd5b60006120fd85828601611e3e565b925050602061210e85828601611f20565b9150509250929050565b60006020828403121561212a57600080fd5b600061213884828501611e7a565b91505092915050565b60006020828403121561215357600080fd5b600061216184828501611e8e565b91505092915050565b60006020828403121561217c57600080fd5b600061218a84828501611ea2565b91505092915050565b600080600080600060a086880312156121ab57600080fd5b60006121b988828901611f0c565b95505060206121ca88828901611e52565b94505060406121db88828901611f34565b93505060606121ec88828901611f34565b92505060806121fd88828901611f34565b9150509295509295909350565b60006020828403121561221c57600080fd5b600061222a84828501611f20565b91505092915050565b61223c81612477565b82525050565b61224b81612497565b82525050565b61225a816124a3565b82525050565b612269816124ad565b82525050565b600061227a82612461565b80845261228e816020860160208601612577565b612297816125aa565b602085010191505092915050565b60006122b08261246c565b8084526122c4816020860160208601612577565b6122cd816125aa565b602085010191505092915050565b6122e4816124d9565b82525050565b60006020820190506122ff6000830184612233565b92915050565b600060808201905061231a6000830187612233565b6123276020830186612233565b61233460408301856122db565b8181036060830152612346818461226f565b905095945050505050565b60006020820190506123666000830184612242565b92915050565b60006020820190506123816000830184612251565b92915050565b600060408201905061239c6000830185612251565b6123a96020830184612233565b9392505050565b60006020820190506123c56000830184612260565b92915050565b600060208201905081810360008301526123e581846122a5565b905092915050565b600060208201905061240260008301846122db565b92915050565b6000604051905081810181811067ffffffffffffffff8211171561242b57600080fd5b8060405250919050565b600067ffffffffffffffff82111561244c57600080fd5b601f19601f8301169050602081019050919050565b600081519050919050565b600081519050919050565b600073ffffffffffffffffffffffffffffffffffffffff82169050919050565b60008115159050919050565b6000819050919050565b60007fffffffff0000000000000000000000000000000000000000000000000000000082169050919050565b6000819050919050565b600073ffffffffffffffffffffffffffffffffffffffff82169050919050565b60008115159050919050565b6000819050919050565b60007fffffffff0000000000000000000000000000000000000000000000000000000082169050919050565b600060068210151561255657600080fd5b819050919050565b6000819050919050565b82818337600083830152505050565b60005b8381101561259557808201518184015260208101905061257a565b838111156125a4576000848401525b50505050565b6000601f19601f83011690509190505600a265627a7a72305820ebf9554f0d4f140231eb43d6d6495f5c7ef70ba62ef3a248febb33cb561580fc6c6578706572696d656e74616cf50037",
  "source": "pragma solidity ^0.4.23;\npragma experimental ABIEncoderV2;\n\nimport './zeppelin-solidity/contracts/token/ERC721/ERC721Token.sol';\nimport \"./Metadata.sol\";\nimport './@ensdomains/ens/contracts/Deed.sol';\nimport './@ensdomains/ens/contracts/HashRegistrarSimplified.sol';\n\ncontract ENSNFT is ERC721Token {\n    event Transfer(address indexed _from, address indexed _to, uint256 indexed _tokenId);\n    address metadata;\n    Registrar registrar;\n    constructor (string _name, string _symbol, Registrar _registrar, Metadata _metadata) public\n        ERC721Token(_name, _symbol) {\n        registrar = _registrar;\n        metadata = _metadata;\n    }\n    function getMetadata() public view returns (address) {\n        return metadata;\n    }\n    // this function uses assembly to delegate a call because it returns a string\n    // of variable length which is not currently allowed without ABIEncoderV2 enabled\n    function tokenURI(uint _tokenId) public view returns (string _infoUrl) {\n        address _impl = getMetadata();\n        bytes memory data = msg.data;\n        assembly {\n            let result := delegatecall(gas, _impl, add(data, 0x20), mload(data), 0, 0)\n            let size := returndatasize\n            let ptr := mload(0x40)\n            returndatacopy(ptr, 0, size)\n            switch result\n            case 0 { revert(ptr, size) }\n            default { return(ptr, size) }\n        }\n        // this is how it would be done if returning a variable length were allowed\n        // return Metadata(metadata).tokenMetadata(_tokenId);\n    }\n    function mint(bytes32 _hash) public {\n        address deedAddress;\n        (, deedAddress, , , ) = registrar.entries(_hash);\n        Deed deed = Deed(deedAddress);\n        require(deed.owner() == address(this));\n        require(deed.previousOwner() == msg.sender);\n        uint256 tokenId = uint256(_hash); // dont do math on this\n        _mint(deed.previousOwner(), tokenId);\n    }\n    function burn(uint256 tokenId) {\n        require(ownerOf(tokenId) == msg.sender);\n        _burn(msg.sender, tokenId);\n        registrar.transfer(bytes32(tokenId), msg.sender);\n    }\n}\n",
  "sourcePath": "/Users/billy/sol/ens/ens-nifty-contracts/contracts/ENSNFT.sol",
  "compiler": {
    "name": "solc",
    "version": "0.4.24+commit.e67f0147.Emscripten.clang"
  },
  "schemaVersion": "2.0.1",
  "updatedAt": "2018-09-19T22:00:24.794Z"
}