{
  "contractName": "Metadata",
  "abi": [
    {
      "constant": true,
      "inputs": [
        {
          "name": "_tokenId",
          "type": "uint256"
        }
      ],
      "name": "tokenURI",
      "outputs": [
        {
          "name": "_infoUrl",
          "type": "string"
        }
      ],
      "payable": false,
      "stateMutability": "view",
      "type": "function"
    }
  ],
  "bytecode": "0x608060405234801561001057600080fd5b50610483806100206000396000f300608060405260043610610041576000357c0100000000000000000000000000000000000000000000000000000000900463ffffffff168063c87b56dd14610046575b600080fd5b34801561005257600080fd5b50610071600480360381019080803590602001909291905050506100ec565b6040518080602001828103825283818151815260200191508051906020019080838360005b838110156100b1578082015181840152602081019050610096565b50505050905090810190601f1680156100de5780820380516001836020036101000a031916815260200191505b509250505060405180910390f35b6060806060806040805190810160405280602081526020017f68747470733a2f2f656e736e696674792e636f6d2f6d657461646174612f30788152509250610133856101bc565b91506040805190810160405280600581526020017f2e6a736f6e00000000000000000000000000000000000000000000000000000081525090506101b261017982610342565b6101a461019f61018886610342565b61019188610342565b61037090919063ffffffff16565b610342565b61037090919063ffffffff16565b9350505050919050565b606060008060006060600080600088141561020e576040805190810160405280600181526020017f30000000000000000000000000000000000000000000000000000000000000008152509650610337565b8795505b6000861415156102345784806001019550506004869060020a90049550610212565b600f9350846040519080825280601f01601f19166020018201604052801561026b5781602001602082028038833980820191505090505b5092506001850391505b600088141515610333578388169050600981116102b757806030017f0100000000000000000000000000000000000000000000000000000000000000026102de565b806037017f0100000000000000000000000000000000000000000000000000000000000000025b8383806001900394508151811015156102f357fe5b9060200101907effffffffffffffffffffffffffffffffffffffffffffffffffffffffffffff1916908160001a9053506004889060020a90049750610275565b8296505b505050505050919050565b61034a61043d565b600060208301905060408051908101604052808451815260200182815250915050919050565b606080600083600001518560000151016040519080825280601f01601f1916602001820160405280156103b25781602001602082028038833980820191505090505b5091506020820190506103ce81866020015187600001516103f2565b6103e785600001518201856020015186600001516103f2565b819250505092915050565b60005b60208210151561041a57825184526020840193506020830192506020820391506103f5565b6001826020036101000a0390508019835116818551168181178652505050505050565b6040805190810160405280600081526020016000815250905600a165627a7a72305820d878b036923d3be144c8ddf103acb0628bda41f77c5b5580f3310655620a843d0029",
  "source": "pragma solidity ^0.4.18;\n/* pragma experimental ABIEncoderV2; */\n\n/**\n* CloversMetadata contract is upgradeable and returns metadata about Clovers\n*/\n\nimport \"./helpers/strings.sol\";\n\ncontract Metadata {\n    using strings for *;\n\n    function tokenURI(uint _tokenId) public view returns (string _infoUrl) {\n        string memory base = \"https://ensnifty.com/metadata/0x\";\n        string memory id = uint2hexstr(_tokenId);\n        string memory suffix = \".json\";\n        return base.toSlice().concat(id.toSlice()).toSlice().concat(suffix.toSlice());\n    }\n    function uint2hexstr(uint i) internal pure returns (string) {\n        if (i == 0) return \"0\";\n        uint j = i;\n        uint length;\n        while (j != 0) {\n            length++;\n            j = j >> 4;\n        }\n        uint mask = 15;\n        bytes memory bstr = new bytes(length);\n        uint k = length - 1;\n        while (i != 0){\n            uint curr = (i & mask);\n            bstr[k--] = curr > 9 ? byte(55 + curr) : byte(48 + curr); // 55 = 65 - 10\n            i = i >> 4;\n        }\n        return string(bstr);\n    }\n}\n",
  "sourcePath": "/Users/billy/sol/ens/ens-nifty-contracts/contracts/Metadata.sol",
  "compiler": {
    "name": "solc",
    "version": "0.4.24+commit.e67f0147.Emscripten.clang"
  },
  "schemaVersion": "2.0.1",
  "updatedAt": "2018-09-19T22:00:24.838Z"
}