{
  "contractName": "Metadata",
  "abi": [
    {
      "constant": true,
      "inputs": [
        {
          "name": "_tokenId",
          "type": "uint256"
        }
      ],
      "name": "tokenURI",
      "outputs": [
        {
          "name": "_infoUrl",
          "type": "string"
        }
      ],
      "payable": false,
      "stateMutability": "view",
      "type": "function"
    }
  ],
  "bytecode": "0x608060405234801561001057600080fd5b5061044d806100206000396000f300608060405260043610610041576000357c0100000000000000000000000000000000000000000000000000000000900463ffffffff168063c87b56dd14610046575b600080fd5b34801561005257600080fd5b50610071600480360381019080803590602001909291905050506100ec565b6040518080602001828103825283818151815260200191508051906020019080838360005b838110156100b1578082015181840152602081019050610096565b50505050905090810190601f1680156100de5780820380516001836020036101000a031916815260200191505b509250505060405180910390f35b60608060608060405190810160405280602581526020017f68747470733a2f2f656e736e696674792e636f6d2f6d657461646174613f686181526020017f73683d3078000000000000000000000000000000000000000000000000000000815250915061015884610186565b905061017d6101668261030c565b61016f8461030c565b61033a90919063ffffffff16565b92505050919050565b60606000806000606060008060008814156101d8576040805190810160405280600181526020017f30000000000000000000000000000000000000000000000000000000000000008152509650610301565b8795505b6000861415156101fe5784806001019550506004869060020a900495506101dc565b600f9350846040519080825280601f01601f1916602001820160405280156102355781602001602082028038833980820191505090505b5092506001850391505b6000881415156102fd5783881690506009811161028157806030017f0100000000000000000000000000000000000000000000000000000000000000026102a8565b806037017f0100000000000000000000000000000000000000000000000000000000000000025b8383806001900394508151811015156102bd57fe5b9060200101907effffffffffffffffffffffffffffffffffffffffffffffffffffffffffffff1916908160001a9053506004889060020a9004975061023f565b8296505b505050505050919050565b610314610407565b600060208301905060408051908101604052808451815260200182815250915050919050565b606080600083600001518560000151016040519080825280601f01601f19166020018201604052801561037c5781602001602082028038833980820191505090505b50915060208201905061039881866020015187600001516103bc565b6103b185600001518201856020015186600001516103bc565b819250505092915050565b60005b6020821015156103e457825184526020840193506020830192506020820391506103bf565b6001826020036101000a0390508019835116818551168181178652505050505050565b6040805190810160405280600081526020016000815250905600a165627a7a723058200d9fb8074f92dcb044d51c05b913235270b90eedf446595334ace93db81ba5260029",
  "source": "pragma solidity ^0.4.18;\n/**\n* Metadata contract is upgradeable and returns metadata about Token\n*/\n\nimport \"./helpers/strings.sol\";\n\ncontract Metadata {\n    using strings for *;\n\n    function tokenURI(uint _tokenId) public view returns (string _infoUrl) {\n        string memory base = \"https://ensnifty.com/metadata?hash=0x\";\n        string memory id = uint2hexstr(_tokenId);\n        return base.toSlice().concat(id.toSlice());\n    }\n    function uint2hexstr(uint i) internal pure returns (string) {\n        if (i == 0) return \"0\";\n        uint j = i;\n        uint length;\n        while (j != 0) {\n            length++;\n            j = j >> 4;\n        }\n        uint mask = 15;\n        bytes memory bstr = new bytes(length);\n        uint k = length - 1;\n        while (i != 0){\n            uint curr = (i & mask);\n            bstr[k--] = curr > 9 ? byte(55 + curr) : byte(48 + curr); // 55 = 65 - 10\n            i = i >> 4;\n        }\n        return string(bstr);\n    }\n}\n",
  "sourcePath": "/Users/billy/sol/ens/ens-nifty-contracts/contracts/Metadata.sol",
  "compiler": {
    "name": "solc",
    "version": "0.4.24+commit.e67f0147.Emscripten.clang"
  },
  "schemaVersion": "2.0.1",
  "updatedAt": "2018-09-26T16:20:32.071Z"
}