{
  "contractName": "Registrar",
  "abi": [
    {
      "constant": true,
      "inputs": [],
      "name": "ens",
      "outputs": [
        {
          "name": "",
          "type": "address"
        }
      ],
      "payable": false,
      "stateMutability": "view",
      "type": "function"
    },
    {
      "constant": true,
      "inputs": [
        {
          "name": "",
          "type": "address"
        },
        {
          "name": "",
          "type": "bytes32"
        }
      ],
      "name": "sealedBids",
      "outputs": [
        {
          "name": "",
          "type": "address"
        }
      ],
      "payable": false,
      "stateMutability": "view",
      "type": "function"
    },
    {
      "constant": true,
      "inputs": [],
      "name": "registryStarted",
      "outputs": [
        {
          "name": "",
          "type": "uint256"
        }
      ],
      "payable": false,
      "stateMutability": "view",
      "type": "function"
    },
    {
      "constant": true,
      "inputs": [],
      "name": "launchLength",
      "outputs": [
        {
          "name": "",
          "type": "uint32"
        }
      ],
      "payable": false,
      "stateMutability": "view",
      "type": "function"
    },
    {
      "constant": true,
      "inputs": [],
      "name": "rootNode",
      "outputs": [
        {
          "name": "",
          "type": "bytes32"
        }
      ],
      "payable": false,
      "stateMutability": "view",
      "type": "function"
    },
    {
      "inputs": [
        {
          "name": "_ens",
          "type": "address"
        },
        {
          "name": "_rootNode",
          "type": "bytes32"
        },
        {
          "name": "_startDate",
          "type": "uint256"
        }
      ],
      "payable": false,
      "stateMutability": "nonpayable",
      "type": "constructor"
    },
    {
      "anonymous": false,
      "inputs": [
        {
          "indexed": true,
          "name": "hash",
          "type": "bytes32"
        },
        {
          "indexed": false,
          "name": "registrationDate",
          "type": "uint256"
        }
      ],
      "name": "AuctionStarted",
      "type": "event"
    },
    {
      "anonymous": false,
      "inputs": [
        {
          "indexed": true,
          "name": "hash",
          "type": "bytes32"
        },
        {
          "indexed": true,
          "name": "bidder",
          "type": "address"
        },
        {
          "indexed": false,
          "name": "deposit",
          "type": "uint256"
        }
      ],
      "name": "NewBid",
      "type": "event"
    },
    {
      "anonymous": false,
      "inputs": [
        {
          "indexed": true,
          "name": "hash",
          "type": "bytes32"
        },
        {
          "indexed": true,
          "name": "owner",
          "type": "address"
        },
        {
          "indexed": false,
          "name": "value",
          "type": "uint256"
        },
        {
          "indexed": false,
          "name": "status",
          "type": "uint8"
        }
      ],
      "name": "BidRevealed",
      "type": "event"
    },
    {
      "anonymous": false,
      "inputs": [
        {
          "indexed": true,
          "name": "hash",
          "type": "bytes32"
        },
        {
          "indexed": true,
          "name": "owner",
          "type": "address"
        },
        {
          "indexed": false,
          "name": "value",
          "type": "uint256"
        },
        {
          "indexed": false,
          "name": "registrationDate",
          "type": "uint256"
        }
      ],
      "name": "HashRegistered",
      "type": "event"
    },
    {
      "anonymous": false,
      "inputs": [
        {
          "indexed": true,
          "name": "hash",
          "type": "bytes32"
        },
        {
          "indexed": false,
          "name": "value",
          "type": "uint256"
        }
      ],
      "name": "HashReleased",
      "type": "event"
    },
    {
      "anonymous": false,
      "inputs": [
        {
          "indexed": true,
          "name": "hash",
          "type": "bytes32"
        },
        {
          "indexed": true,
          "name": "name",
          "type": "string"
        },
        {
          "indexed": false,
          "name": "value",
          "type": "uint256"
        },
        {
          "indexed": false,
          "name": "registrationDate",
          "type": "uint256"
        }
      ],
      "name": "HashInvalidated",
      "type": "event"
    },
    {
      "constant": false,
      "inputs": [
        {
          "name": "_hash",
          "type": "bytes32"
        }
      ],
      "name": "startAuction",
      "outputs": [],
      "payable": false,
      "stateMutability": "nonpayable",
      "type": "function"
    },
    {
      "constant": false,
      "inputs": [
        {
          "name": "_hashes",
          "type": "bytes32[]"
        }
      ],
      "name": "startAuctions",
      "outputs": [],
      "payable": false,
      "stateMutability": "nonpayable",
      "type": "function"
    },
    {
      "constant": false,
      "inputs": [
        {
          "name": "sealedBid",
          "type": "bytes32"
        }
      ],
      "name": "newBid",
      "outputs": [],
      "payable": true,
      "stateMutability": "payable",
      "type": "function"
    },
    {
      "constant": false,
      "inputs": [
        {
          "name": "hashes",
          "type": "bytes32[]"
        },
        {
          "name": "sealedBid",
          "type": "bytes32"
        }
      ],
      "name": "startAuctionsAndBid",
      "outputs": [],
      "payable": true,
      "stateMutability": "payable",
      "type": "function"
    },
    {
      "constant": false,
      "inputs": [
        {
          "name": "_hash",
          "type": "bytes32"
        },
        {
          "name": "_value",
          "type": "uint256"
        },
        {
          "name": "_salt",
          "type": "bytes32"
        }
      ],
      "name": "unsealBid",
      "outputs": [],
      "payable": false,
      "stateMutability": "nonpayable",
      "type": "function"
    },
    {
      "constant": false,
      "inputs": [
        {
          "name": "bidder",
          "type": "address"
        },
        {
          "name": "seal",
          "type": "bytes32"
        }
      ],
      "name": "cancelBid",
      "outputs": [],
      "payable": false,
      "stateMutability": "nonpayable",
      "type": "function"
    },
    {
      "constant": false,
      "inputs": [
        {
          "name": "_hash",
          "type": "bytes32"
        }
      ],
      "name": "finalizeAuction",
      "outputs": [],
      "payable": false,
      "stateMutability": "nonpayable",
      "type": "function"
    },
    {
      "constant": false,
      "inputs": [
        {
          "name": "_hash",
          "type": "bytes32"
        },
        {
          "name": "newOwner",
          "type": "address"
        }
      ],
      "name": "transfer",
      "outputs": [],
      "payable": false,
      "stateMutability": "nonpayable",
      "type": "function"
    },
    {
      "constant": false,
      "inputs": [
        {
          "name": "_hash",
          "type": "bytes32"
        }
      ],
      "name": "releaseDeed",
      "outputs": [],
      "payable": false,
      "stateMutability": "nonpayable",
      "type": "function"
    },
    {
      "constant": false,
      "inputs": [
        {
          "name": "unhashedName",
          "type": "string"
        }
      ],
      "name": "invalidateName",
      "outputs": [],
      "payable": false,
      "stateMutability": "nonpayable",
      "type": "function"
    },
    {
      "constant": false,
      "inputs": [
        {
          "name": "labels",
          "type": "bytes32[]"
        }
      ],
      "name": "eraseNode",
      "outputs": [],
      "payable": false,
      "stateMutability": "nonpayable",
      "type": "function"
    },
    {
      "constant": false,
      "inputs": [
        {
          "name": "_hash",
          "type": "bytes32"
        }
      ],
      "name": "transferRegistrars",
      "outputs": [],
      "payable": false,
      "stateMutability": "nonpayable",
      "type": "function"
    },
    {
      "constant": false,
      "inputs": [
        {
          "name": "hash",
          "type": "bytes32"
        },
        {
          "name": "deed",
          "type": "address"
        },
        {
          "name": "registrationDate",
          "type": "uint256"
        }
      ],
      "name": "acceptRegistrarTransfer",
      "outputs": [],
      "payable": false,
      "stateMutability": "nonpayable",
      "type": "function"
    },
    {
      "constant": true,
      "inputs": [
        {
          "name": "_hash",
          "type": "bytes32"
        }
      ],
      "name": "state",
      "outputs": [
        {
          "name": "",
          "type": "uint8"
        }
      ],
      "payable": false,
      "stateMutability": "view",
      "type": "function"
    },
    {
      "constant": true,
      "inputs": [
        {
          "name": "_hash",
          "type": "bytes32"
        }
      ],
      "name": "entries",
      "outputs": [
        {
          "name": "",
          "type": "uint8"
        },
        {
          "name": "",
          "type": "address"
        },
        {
          "name": "",
          "type": "uint256"
        },
        {
          "name": "",
          "type": "uint256"
        },
        {
          "name": "",
          "type": "uint256"
        }
      ],
      "payable": false,
      "stateMutability": "view",
      "type": "function"
    },
    {
      "constant": true,
      "inputs": [
        {
          "name": "_hash",
          "type": "bytes32"
        },
        {
          "name": "_timestamp",
          "type": "uint256"
        }
      ],
      "name": "isAllowed",
      "outputs": [
        {
          "name": "allowed",
          "type": "bool"
        }
      ],
      "payable": false,
      "stateMutability": "view",
      "type": "function"
    },
    {
      "constant": true,
      "inputs": [
        {
          "name": "_hash",
          "type": "bytes32"
        }
      ],
      "name": "getAllowedTime",
      "outputs": [
        {
          "name": "",
          "type": "uint256"
        }
      ],
      "payable": false,
      "stateMutability": "view",
      "type": "function"
    },
    {
      "constant": true,
      "inputs": [
        {
          "name": "hash",
          "type": "bytes32"
        },
        {
          "name": "owner",
          "type": "address"
        },
        {
          "name": "value",
          "type": "uint256"
        },
        {
          "name": "salt",
          "type": "bytes32"
        }
      ],
      "name": "shaBid",
      "outputs": [
        {
          "name": "",
          "type": "bytes32"
        }
      ],
      "payable": false,
      "stateMutability": "pure",
      "type": "function"
    }
  ],
  "bytecode": "0x608060405234801561001057600080fd5b5060405160608062004528833981018060405281019080805190602001909291908051906020019092919080519060200190929190505050826000806101000a81548173ffffffffffffffffffffffffffffffffffffffff021916908373ffffffffffffffffffffffffffffffffffffffff1602179055508160018160001916905550600081116100a157426100a3565b805b60048190555050505061446c80620000bc6000396000f300608060405260043610610133576000357c0100000000000000000000000000000000000000000000000000000000900463ffffffff1680630230a07c1461013857806313c89a8f1461016957806315f73331146101ae57806322ec1244146102175780632525f5c11461029c578063267b6922146102ed5780633f15457f1461038857806347872b42146103df5780635ddae283146104285780635e4317091461045957806361d585da146104ea57806379ce9fac1461053d578063935033371461058e578063983b94fb146105e15780639c67f06f14610612578063ae1a0b0c1461063d578063ce92dced14610674578063de10f04b14610698578063e27fe50f146106fe578063ea9e107a14610764578063ede8acdb146107bf578063faff50a8146107f0578063febefd6114610823575b600080fd5b34801561014457600080fd5b50610167600480360381019080803560001916906020019092919050505061088a565b005b34801561017557600080fd5b506101986004803603810190808035600019169060200190929190505050610c66565b6040518082815260200191505060405180910390f35b3480156101ba57600080fd5b50610215600480360381019080803590602001908201803590602001908080601f0160208091040260200160405190810160405280939291908181526020018383808284378201915050505050509192919290505050610c92565b005b34801561022357600080fd5b5061027e6004803603810190808035600019169060200190929190803573ffffffffffffffffffffffffffffffffffffffff169060200190929190803590602001909291908035600019169060200190929190505050611185565b60405180826000191660001916815260200191505060405180910390f35b3480156102a857600080fd5b506102eb600480360381019080803573ffffffffffffffffffffffffffffffffffffffff169060200190929190803560001916906020019092919050505061120a565b005b3480156102f957600080fd5b5061031c600480360381019080803560001916906020019092919050505061159f565b6040518086600581111561032c57fe5b60ff1681526020018573ffffffffffffffffffffffffffffffffffffffff1673ffffffffffffffffffffffffffffffffffffffff1681526020018481526020018381526020018281526020019550505050505060405180910390f35b34801561039457600080fd5b5061039d611619565b604051808273ffffffffffffffffffffffffffffffffffffffff1673ffffffffffffffffffffffffffffffffffffffff16815260200191505060405180910390f35b3480156103eb57600080fd5b50610426600480360381019080803560001916906020019092919080359060200190929190803560001916906020019092919050505061163e565b005b34801561043457600080fd5b506104576004803603810190808035600019169060200190929190505050611f8e565b005b34801561046557600080fd5b506104a8600480360381019080803573ffffffffffffffffffffffffffffffffffffffff1690602001909291908035600019169060200190929190505050612433565b604051808273ffffffffffffffffffffffffffffffffffffffff1673ffffffffffffffffffffffffffffffffffffffff16815260200191505060405180910390f35b3480156104f657600080fd5b506105196004803603810190808035600019169060200190929190505050612475565b6040518082600581111561052957fe5b60ff16815260200191505060405180910390f35b34801561054957600080fd5b5061058c6004803603810190808035600019169060200190929190803573ffffffffffffffffffffffffffffffffffffffff169060200190929190505050612504565b005b34801561059a57600080fd5b506105c7600480360381019080803560001916906020019092919080359060200190929190505050612771565b604051808215151515815260200191505060405180910390f35b3480156105ed57600080fd5b506106106004803603810190808035600019169060200190929190505050612786565b005b34801561061e57600080fd5b50610627612bb5565b6040518082815260200191505060405180910390f35b34801561064957600080fd5b50610652612bbb565b604051808263ffffffff1663ffffffff16815260200191505060405180910390f35b6106966004803603810190808035600019169060200190929190505050612bc2565b005b3480156106a457600080fd5b506106fc60048036038101908080359060200190820180359060200190808060200260200160405190810160405280939291908181526020018383602002808284378201915050505050509192919290505050612dc4565b005b34801561070a57600080fd5b5061076260048036038101908080359060200190820180359060200190808060200260200160405190810160405280939291908181526020018383602002808284378201915050505050509192919290505050612e32565b005b34801561077057600080fd5b506107bd6004803603810190808035600019169060200190929190803573ffffffffffffffffffffffffffffffffffffffff16906020019092919080359060200190929190505050612e72565b005b3480156107cb57600080fd5b506107ee6004803603810190808035600019169060200190929190505050612e77565b005b3480156107fc57600080fd5b50610805613089565b60405180826000191660001916815260200191505060405180910390f35b61088860048036038101908080359060200190820180359060200190808060200260200160405190810160405280939291908181526020018383602002808284378201915050505050509192919290803560001916906020019092919050505061308f565b005b600080826002600581111561089b57fe5b6108a482612475565b60058111156108af57fe5b1480156109c3575060026000826000191660001916815260200190815260200160002060000160009054906101000a900473ffffffffffffffffffffffffffffffffffffffff1673ffffffffffffffffffffffffffffffffffffffff16638da5cb5b6040518163ffffffff167c0100000000000000000000000000000000000000000000000000000000028152600401602060405180830381600087803b15801561095957600080fd5b505af115801561096d573d6000803e3d6000fd5b505050506040513d602081101561098357600080fd5b810190808051906020019092919050505073ffffffffffffffffffffffffffffffffffffffff163373ffffffffffffffffffffffffffffffffffffffff16145b15156109ce57600080fd5b60026000856000191660001916815260200190815260200160002092508260000160009054906101000a900473ffffffffffffffffffffffffffffffffffffffff1691506301e1338083600101540142101580610b2b57503073ffffffffffffffffffffffffffffffffffffffff166000809054906101000a900473ffffffffffffffffffffffffffffffffffffffff1673ffffffffffffffffffffffffffffffffffffffff166302571be36001546040518263ffffffff167c0100000000000000000000000000000000000000000000000000000000028152600401808260001916600019168152602001915050602060405180830381600087803b158015610ad757600080fd5b505af1158015610aeb573d6000803e3d6000fd5b505050506040513d6020811015610b0157600080fd5b810190808051906020019092919050505073ffffffffffffffffffffffffffffffffffffffff1614155b1515610b3657600080fd5b600083600201819055506000836003018190555060008360000160006101000a81548173ffffffffffffffffffffffffffffffffffffffff021916908373ffffffffffffffffffffffffffffffffffffffff160217905550610b97846130a5565b8173ffffffffffffffffffffffffffffffffffffffff1663bbe427716103e86040518263ffffffff167c010000000000000000000000000000000000000000000000000000000002815260040180828152602001915050600060405180830381600087803b158015610c0857600080fd5b505af1158015610c1c573d6000803e3d6000fd5b5050505083600019167f292b79b9246fa2c8e77d3fe195b251f9cb839d7d038e667c069ee7708c631e1684600201546040518082815260200191505060405180910390a250505050565b600060808083600190049060020a90046249d40063ffffffff16029060020a9004600454019050919050565b600080826040518082805190602001908083835b602083101515610ccb5780518252602082019150602081019050602083039250610ca6565b6001836020036101000a03801982511681845116808217855250505050505090500191505060405180910390206002806005811115610d0657fe5b610d0f83612475565b6005811115610d1a57fe5b141515610d2657600080fd5b6006610d318661347a565b11151515610d3e57600080fd5b846040518082805190602001908083835b602083101515610d745780518252602082019150602081019050602083039250610d4f565b6001836020036101000a038019825116818451168082178552505050505050905001915050604051809103902093506002600085600019166000191681526020019081526020016000209250610dc9846130a5565b60008360000160009054906101000a900473ffffffffffffffffffffffffffffffffffffffff1673ffffffffffffffffffffffffffffffffffffffff1614151561107757610e228360020154662386f26fc10000613539565b83600201819055508260000160009054906101000a900473ffffffffffffffffffffffffffffffffffffffff1673ffffffffffffffffffffffffffffffffffffffff1663b0c8097260028560020154811515610e7a57fe5b0460006040518363ffffffff167c0100000000000000000000000000000000000000000000000000000000028152600401808381526020018215151515815260200192505050600060405180830381600087803b158015610eda57600080fd5b505af1158015610eee573d6000803e3d6000fd5b505050508260000160009054906101000a900473ffffffffffffffffffffffffffffffffffffffff1673ffffffffffffffffffffffffffffffffffffffff166313af4035336040518263ffffffff167c0100000000000000000000000000000000000000000000000000000000028152600401808273ffffffffffffffffffffffffffffffffffffffff1673ffffffffffffffffffffffffffffffffffffffff168152602001915050600060405180830381600087803b158015610fb157600080fd5b505af1158015610fc5573d6000803e3d6000fd5b505050508260000160009054906101000a900473ffffffffffffffffffffffffffffffffffffffff1673ffffffffffffffffffffffffffffffffffffffff1663bbe427716103e86040518263ffffffff167c010000000000000000000000000000000000000000000000000000000002815260040180828152602001915050600060405180830381600087803b15801561105e57600080fd5b505af1158015611072573d6000803e3d6000fd5b505050505b846040518082805190602001908083835b6020831015156110ad5780518252602082019150602081019050602083039250611088565b6001836020036101000a038019825116818451168082178552505050505050905001915050604051809103902084600019167f1f9c649fe47e58bb60f4e52f0d90e4c47a526c9f90c5113df842c025970b66ad85600201548660010154604051808381526020018281526020019250505060405180910390a3600083600201819055506000836003018190555060008360000160006101000a81548173ffffffffffffffffffffffffffffffffffffffff021916908373ffffffffffffffffffffffffffffffffffffffff1602179055505050505050565b6000848484846040518085600019166000191681526020018473ffffffffffffffffffffffffffffffffffffffff1673ffffffffffffffffffffffffffffffffffffffff166c01000000000000000000000000028152601401838152602001826000191660001916815260200194505050505060405180910390209050949350505050565b6000600360008473ffffffffffffffffffffffffffffffffffffffff1673ffffffffffffffffffffffffffffffffffffffff1681526020019081526020016000206000836000191660001916815260200190815260200160002060009054906101000a900473ffffffffffffffffffffffffffffffffffffffff16905060008173ffffffffffffffffffffffffffffffffffffffff161415801561135c5750621275006206978063ffffffff168273ffffffffffffffffffffffffffffffffffffffff166305b344106040518163ffffffff167c0100000000000000000000000000000000000000000000000000000000028152600401602060405180830381600087803b15801561131b57600080fd5b505af115801561132f573d6000803e3d6000fd5b505050506040513d602081101561134557600080fd5b810190808051906020019092919050505001014210155b151561136757600080fd5b8073ffffffffffffffffffffffffffffffffffffffff166313af4035336040518263ffffffff167c0100000000000000000000000000000000000000000000000000000000028152600401808273ffffffffffffffffffffffffffffffffffffffff1673ffffffffffffffffffffffffffffffffffffffff168152602001915050600060405180830381600087803b15801561140257600080fd5b505af1158015611416573d6000803e3d6000fd5b505050508073ffffffffffffffffffffffffffffffffffffffff1663bbe4277160056040518263ffffffff167c010000000000000000000000000000000000000000000000000000000002815260040180828152602001915050600060405180830381600087803b15801561148a57600080fd5b505af115801561149e573d6000803e3d6000fd5b505050506000600360008573ffffffffffffffffffffffffffffffffffffffff1673ffffffffffffffffffffffffffffffffffffffff1681526020019081526020016000206000846000191660001916815260200190815260200160002060006101000a81548173ffffffffffffffffffffffffffffffffffffffff021916908373ffffffffffffffffffffffffffffffffffffffff1602179055508273ffffffffffffffffffffffffffffffffffffffff1682600019167f7b6c4b278d165a6b33958f8ea5dfb00c8c9d4d0acf1985bef5d10786898bc3e760006005604051808381526020018260ff1681526020019250505060405180910390a3505050565b60008060008060008060026000886000191660001916815260200190815260200160002090506115ce87612475565b8160000160009054906101000a900473ffffffffffffffffffffffffffffffffffffffff16826001015483600201548460030154839350955095509550955095505091939590929450565b6000809054906101000a900473ffffffffffffffffffffffffffffffffffffffff1681565b60008060008060008061165389338a8a611185565b9550600360003373ffffffffffffffffffffffffffffffffffffffff1673ffffffffffffffffffffffffffffffffffffffff1681526020019081526020016000206000876000191660001916815260200190815260200160002060009054906101000a900473ffffffffffffffffffffffffffffffffffffffff16945060008573ffffffffffffffffffffffffffffffffffffffff16141515156116f657600080fd5b6000600360003373ffffffffffffffffffffffffffffffffffffffff1673ffffffffffffffffffffffffffffffffffffffff1681526020019081526020016000206000886000191660001916815260200190815260200160002060006101000a81548173ffffffffffffffffffffffffffffffffffffffff021916908373ffffffffffffffffffffffffffffffffffffffff160217905550600260008a600019166000191681526020019081526020016000209350611853888673ffffffffffffffffffffffffffffffffffffffff16633fa4f2456040518163ffffffff167c0100000000000000000000000000000000000000000000000000000000028152600401602060405180830381600087803b15801561181357600080fd5b505af1158015611827573d6000803e3d6000fd5b505050506040513d602081101561183d57600080fd5b8101908080519060200190929190505050613555565b92508473ffffffffffffffffffffffffffffffffffffffff1663b0c809728460016040518363ffffffff167c0100000000000000000000000000000000000000000000000000000000028152600401808381526020018215151515815260200192505050600060405180830381600087803b1580156118d157600080fd5b505af11580156118e5573d6000803e3d6000fd5b505050506118f289612475565b91506002600581111561190157fe5b82600581111561190d57fe5b14156119ff578473ffffffffffffffffffffffffffffffffffffffff1663bbe4277160056040518263ffffffff167c010000000000000000000000000000000000000000000000000000000002815260040180828152602001915050600060405180830381600087803b15801561198357600080fd5b505af1158015611997573d6000803e3d6000fd5b505050503373ffffffffffffffffffffffffffffffffffffffff1689600019167f7b6c4b278d165a6b33958f8ea5dfb00c8c9d4d0acf1985bef5d10786898bc3e7856001604051808381526020018260ff1681526020019250505060405180910390a3611f83565b60046005811115611a0c57fe5b826005811115611a1857fe5b141515611a2457600080fd5b662386f26fc10000831080611ae557506202a30063ffffffff168460010154038573ffffffffffffffffffffffffffffffffffffffff166305b344106040518163ffffffff167c0100000000000000000000000000000000000000000000000000000000028152600401602060405180830381600087803b158015611aa857600080fd5b505af1158015611abc573d6000803e3d6000fd5b505050506040513d6020811015611ad257600080fd5b8101908080519060200190929190505050115b15611bd7578473ffffffffffffffffffffffffffffffffffffffff1663bbe427716103e36040518263ffffffff167c010000000000000000000000000000000000000000000000000000000002815260040180828152602001915050600060405180830381600087803b158015611b5b57600080fd5b505af1158015611b6f573d6000803e3d6000fd5b505050503373ffffffffffffffffffffffffffffffffffffffff1689600019167f7b6c4b278d165a6b33958f8ea5dfb00c8c9d4d0acf1985bef5d10786898bc3e7856000604051808381526020018260ff1681526020019250505060405180910390a3611f82565b8360030154831115611d955760008460000160009054906101000a900473ffffffffffffffffffffffffffffffffffffffff1673ffffffffffffffffffffffffffffffffffffffff16141515611cd8578360000160009054906101000a900473ffffffffffffffffffffffffffffffffffffffff1690508073ffffffffffffffffffffffffffffffffffffffff1663bbe427716103e36040518263ffffffff167c010000000000000000000000000000000000000000000000000000000002815260040180828152602001915050600060405180830381600087803b158015611cbf57600080fd5b505af1158015611cd3573d6000803e3d6000fd5b505050505b83600301548460020181905550828460030181905550848460000160006101000a81548173ffffffffffffffffffffffffffffffffffffffff021916908373ffffffffffffffffffffffffffffffffffffffff1602179055503373ffffffffffffffffffffffffffffffffffffffff1689600019167f7b6c4b278d165a6b33958f8ea5dfb00c8c9d4d0acf1985bef5d10786898bc3e7856002604051808381526020018260ff1681526020019250505060405180910390a3611f81565b8360020154831115611e97578284600201819055508473ffffffffffffffffffffffffffffffffffffffff1663bbe427716103e36040518263ffffffff167c010000000000000000000000000000000000000000000000000000000002815260040180828152602001915050600060405180830381600087803b158015611e1b57600080fd5b505af1158015611e2f573d6000803e3d6000fd5b505050503373ffffffffffffffffffffffffffffffffffffffff1689600019167f7b6c4b278d165a6b33958f8ea5dfb00c8c9d4d0acf1985bef5d10786898bc3e7856003604051808381526020018260ff1681526020019250505060405180910390a3611f80565b8473ffffffffffffffffffffffffffffffffffffffff1663bbe427716103e36040518263ffffffff167c010000000000000000000000000000000000000000000000000000000002815260040180828152602001915050600060405180830381600087803b158015611f0857600080fd5b505af1158015611f1c573d6000803e3d6000fd5b505050503373ffffffffffffffffffffffffffffffffffffffff1689600019167f7b6c4b278d165a6b33958f8ea5dfb00c8c9d4d0acf1985bef5d10786898bc3e7856004604051808381526020018260ff1681526020019250505060405180910390a35b5b5b5b505050505050505050565b6000808260026005811115611f9f57fe5b611fa882612475565b6005811115611fb357fe5b1480156120c7575060026000826000191660001916815260200190815260200160002060000160009054906101000a900473ffffffffffffffffffffffffffffffffffffffff1673ffffffffffffffffffffffffffffffffffffffff16638da5cb5b6040518163ffffffff167c0100000000000000000000000000000000000000000000000000000000028152600401602060405180830381600087803b15801561205d57600080fd5b505af1158015612071573d6000803e3d6000fd5b505050506040513d602081101561208757600080fd5b810190808051906020019092919050505073ffffffffffffffffffffffffffffffffffffffff163373ffffffffffffffffffffffffffffffffffffffff16145b15156120d257600080fd5b6000809054906101000a900473ffffffffffffffffffffffffffffffffffffffff1673ffffffffffffffffffffffffffffffffffffffff166302571be36001546040518263ffffffff167c0100000000000000000000000000000000000000000000000000000000028152600401808260001916600019168152602001915050602060405180830381600087803b15801561216c57600080fd5b505af1158015612180573d6000803e3d6000fd5b505050506040513d602081101561219657600080fd5b810190808051906020019092919050505092503073ffffffffffffffffffffffffffffffffffffffff168373ffffffffffffffffffffffffffffffffffffffff16141515156121e457600080fd5b60026000856000191660001916815260200190815260200160002091508160000160009054906101000a900473ffffffffffffffffffffffffffffffffffffffff1673ffffffffffffffffffffffffffffffffffffffff1663faab9d39846040518263ffffffff167c0100000000000000000000000000000000000000000000000000000000028152600401808273ffffffffffffffffffffffffffffffffffffffff1673ffffffffffffffffffffffffffffffffffffffff168152602001915050600060405180830381600087803b1580156122c057600080fd5b505af11580156122d4573d6000803e3d6000fd5b505050508273ffffffffffffffffffffffffffffffffffffffff1663ea9e107a858460000160009054906101000a900473ffffffffffffffffffffffffffffffffffffffff1685600101546040518463ffffffff167c01000000000000000000000000000000000000000000000000000000000281526004018084600019166000191681526020018373ffffffffffffffffffffffffffffffffffffffff1673ffffffffffffffffffffffffffffffffffffffff1681526020018281526020019350505050600060405180830381600087803b1580156123b357600080fd5b505af11580156123c7573d6000803e3d6000fd5b5050505060008260000160006101000a81548173ffffffffffffffffffffffffffffffffffffffff021916908373ffffffffffffffffffffffffffffffffffffffff16021790555060008260010181905550600082600201819055506000826003018190555050505050565b60036020528160005260406000206020528060005260406000206000915091509054906101000a900473ffffffffffffffffffffffffffffffffffffffff1681565b600080600260008460001916600019168152602001908152602001600020905061249f8342612771565b15156124ae57600591506124fe565b80600101544210156124e3576202a30063ffffffff168160010154034210156124da57600191506124fe565b600491506124fe565b6000816003015414156124f957600091506124fe565b600291505b50919050565b6000826002600581111561251457fe5b61251d82612475565b600581111561252857fe5b14801561263c575060026000826000191660001916815260200190815260200160002060000160009054906101000a900473ffffffffffffffffffffffffffffffffffffffff1673ffffffffffffffffffffffffffffffffffffffff16638da5cb5b6040518163ffffffff167c0100000000000000000000000000000000000000000000000000000000028152600401602060405180830381600087803b1580156125d257600080fd5b505af11580156125e6573d6000803e3d6000fd5b505050506040513d60208110156125fc57600080fd5b810190808051906020019092919050505073ffffffffffffffffffffffffffffffffffffffff163373ffffffffffffffffffffffffffffffffffffffff16145b151561264757600080fd5b60008373ffffffffffffffffffffffffffffffffffffffff161415151561266d57600080fd5b60026000856000191660001916815260200190815260200160002091508160000160009054906101000a900473ffffffffffffffffffffffffffffffffffffffff1673ffffffffffffffffffffffffffffffffffffffff166313af4035846040518263ffffffff167c0100000000000000000000000000000000000000000000000000000000028152600401808273ffffffffffffffffffffffffffffffffffffffff1673ffffffffffffffffffffffffffffffffffffffff168152602001915050600060405180830381600087803b15801561274957600080fd5b505af115801561275d573d6000803e3d6000fd5b5050505061276b8484613571565b50505050565b600061277c83610c66565b8211905092915050565b6000816002600581111561279657fe5b61279f82612475565b60058111156127aa57fe5b1480156128be575060026000826000191660001916815260200190815260200160002060000160009054906101000a900473ffffffffffffffffffffffffffffffffffffffff1673ffffffffffffffffffffffffffffffffffffffff16638da5cb5b6040518163ffffffff167c0100000000000000000000000000000000000000000000000000000000028152600401602060405180830381600087803b15801561285457600080fd5b505af1158015612868573d6000803e3d6000fd5b505050506040513d602081101561287e57600080fd5b810190808051906020019092919050505073ffffffffffffffffffffffffffffffffffffffff163373ffffffffffffffffffffffffffffffffffffffff16145b15156128c957600080fd5b60026000846000191660001916815260200190815260200160002091506128fb8260020154662386f26fc10000613539565b82600201819055508160000160009054906101000a900473ffffffffffffffffffffffffffffffffffffffff1673ffffffffffffffffffffffffffffffffffffffff1663b0c80972836002015460016040518363ffffffff167c0100000000000000000000000000000000000000000000000000000000028152600401808381526020018215151515815260200192505050600060405180830381600087803b1580156129a757600080fd5b505af11580156129bb573d6000803e3d6000fd5b50505050612a8b838360000160009054906101000a900473ffffffffffffffffffffffffffffffffffffffff1673ffffffffffffffffffffffffffffffffffffffff16638da5cb5b6040518163ffffffff167c0100000000000000000000000000000000000000000000000000000000028152600401602060405180830381600087803b158015612a4b57600080fd5b505af1158015612a5f573d6000803e3d6000fd5b505050506040513d6020811015612a7557600080fd5b8101908080519060200190929190505050613571565b8160000160009054906101000a900473ffffffffffffffffffffffffffffffffffffffff1673ffffffffffffffffffffffffffffffffffffffff16638da5cb5b6040518163ffffffff167c0100000000000000000000000000000000000000000000000000000000028152600401602060405180830381600087803b158015612b1357600080fd5b505af1158015612b27573d6000803e3d6000fd5b505050506040513d6020811015612b3d57600080fd5b810190808051906020019092919050505073ffffffffffffffffffffffffffffffffffffffff1683600019167f0f0c27adfd84b60b6f456b0e87cdccb1e5fb9603991588d87fa99f5b6b61e67084600201548560010154604051808381526020018281526020019250505060405180910390a3505050565b60045481565b6249d40081565b600080600360003373ffffffffffffffffffffffffffffffffffffffff1673ffffffffffffffffffffffffffffffffffffffff1681526020019081526020016000206000846000191660001916815260200190815260200160002060009054906101000a900473ffffffffffffffffffffffffffffffffffffffff1673ffffffffffffffffffffffffffffffffffffffff16141515612c6057600080fd5b662386f26fc100003410151515612c7657600080fd5b3433612c80613a81565b808273ffffffffffffffffffffffffffffffffffffffff1673ffffffffffffffffffffffffffffffffffffffff1681526020019150506040518091039082f080158015612cd1573d6000803e3d6000fd5b509050905080600360003373ffffffffffffffffffffffffffffffffffffffff1673ffffffffffffffffffffffffffffffffffffffff1681526020019081526020016000206000846000191660001916815260200190815260200160002060006101000a81548173ffffffffffffffffffffffffffffffffffffffff021916908373ffffffffffffffffffffffffffffffffffffffff1602179055503373ffffffffffffffffffffffffffffffffffffffff1682600019167fb556ff269c1b6714f432c36431e2041d28436a73b6c3f19c021827bbdc6bfc29346040518082815260200191505060405180910390a35050565b6000815114151515612dd557600080fd5b60026005811115612de257fe5b612e06826001845103815181101515612df757fe5b90602001906020020151612475565b6005811115612e1157fe5b14151515612e1e57600080fd5b612e2f600182510382600154613774565b50565b60008090505b8151811015612e6e57612e618282815181101515612e5257fe5b90602001906020020151612e77565b8080600101915050612e38565b5050565b505050565b6000806004544210158015612e945750630784ce00600454014211155b8015612f9f57503073ffffffffffffffffffffffffffffffffffffffff166000809054906101000a900473ffffffffffffffffffffffffffffffffffffffff1673ffffffffffffffffffffffffffffffffffffffff166302571be36001546040518263ffffffff167c0100000000000000000000000000000000000000000000000000000000028152600401808260001916600019168152602001915050602060405180830381600087803b158015612f4c57600080fd5b505af1158015612f60573d6000803e3d6000fd5b505050506040513d6020811015612f7657600080fd5b810190808051906020019092919050505073ffffffffffffffffffffffffffffffffffffffff16145b1515612faa57600080fd5b612fb383612475565b915060016005811115612fc257fe5b826005811115612fce57fe5b1415612fd957613084565b60006005811115612fe657fe5b826005811115612ff257fe5b141515612ffe57600080fd5b60026000846000191660001916815260200190815260200160002090506206978063ffffffff1642018160010181905550600081600201819055506000816003018190555082600019167f87e97e825a1d1fa0c54e1d36c7506c1dea8b1efd451fe68b000cf96f7cf4000382600101546040518082815260200191505060405180910390a25b505050565b60015481565b61309882612e32565b6130a181612bc2565b5050565b60003073ffffffffffffffffffffffffffffffffffffffff166000809054906101000a900473ffffffffffffffffffffffffffffffffffffffff1673ffffffffffffffffffffffffffffffffffffffff166302571be36001546040518263ffffffff167c0100000000000000000000000000000000000000000000000000000000028152600401808260001916600019168152602001915050602060405180830381600087803b15801561315857600080fd5b505af115801561316c573d6000803e3d6000fd5b505050506040513d602081101561318257600080fd5b810190808051906020019092919050505073ffffffffffffffffffffffffffffffffffffffff161415613476576000809054906101000a900473ffffffffffffffffffffffffffffffffffffffff1673ffffffffffffffffffffffffffffffffffffffff166306ab592360015484306040518463ffffffff167c010000000000000000000000000000000000000000000000000000000002815260040180846000191660001916815260200183600019166000191681526020018273ffffffffffffffffffffffffffffffffffffffff1673ffffffffffffffffffffffffffffffffffffffff1681526020019350505050600060405180830381600087803b15801561328d57600080fd5b505af11580156132a1573d6000803e3d6000fd5b5050505060015482604051808360001916600019168152602001826000191660001916815260200192505050604051809103902090506000809054906101000a900473ffffffffffffffffffffffffffffffffffffffff1673ffffffffffffffffffffffffffffffffffffffff16631896f70a8260006040518363ffffffff167c01000000000000000000000000000000000000000000000000000000000281526004018083600019166000191681526020018273ffffffffffffffffffffffffffffffffffffffff16815260200192505050600060405180830381600087803b15801561338e57600080fd5b505af11580156133a2573d6000803e3d6000fd5b505050506000809054906101000a900473ffffffffffffffffffffffffffffffffffffffff1673ffffffffffffffffffffffffffffffffffffffff16635b0fc9c38260006040518363ffffffff167c01000000000000000000000000000000000000000000000000000000000281526004018083600019166000191681526020018273ffffffffffffffffffffffffffffffffffffffff16815260200192505050600060405180830381600087803b15801561345d57600080fd5b505af1158015613471573d6000803e3d6000fd5b505050505b5050565b6000806000806000600186019350838651019250600091505b8284101561352d5760ff845116905060808160ff1610156134b957600184019350613520565b60e08160ff1610156134d05760028401935061351f565b60f08160ff1610156134e75760038401935061351e565b60f88160ff1610156134fe5760048401935061351d565b60fc8160ff1610156135155760058401935061351c565b6006840193505b5b5b5b5b8180600101925050613493565b81945050505050919050565b60008183111561354b5782905061354f565b8190505b92915050565b6000818310156135675782905061356b565b8190505b92915050565b3073ffffffffffffffffffffffffffffffffffffffff166000809054906101000a900473ffffffffffffffffffffffffffffffffffffffff1673ffffffffffffffffffffffffffffffffffffffff166302571be36001546040518263ffffffff167c0100000000000000000000000000000000000000000000000000000000028152600401808260001916600019168152602001915050602060405180830381600087803b15801561362257600080fd5b505af1158015613636573d6000803e3d6000fd5b505050506040513d602081101561364c57600080fd5b810190808051906020019092919050505073ffffffffffffffffffffffffffffffffffffffff161415613770576000809054906101000a900473ffffffffffffffffffffffffffffffffffffffff1673ffffffffffffffffffffffffffffffffffffffff166306ab592360015484846040518463ffffffff167c010000000000000000000000000000000000000000000000000000000002815260040180846000191660001916815260200183600019166000191681526020018273ffffffffffffffffffffffffffffffffffffffff1673ffffffffffffffffffffffffffffffffffffffff1681526020019350505050600060405180830381600087803b15801561375757600080fd5b505af115801561376b573d6000803e3d6000fd5b505050505b5050565b6000809054906101000a900473ffffffffffffffffffffffffffffffffffffffff1673ffffffffffffffffffffffffffffffffffffffff166306ab59238284868151811015156137c057fe5b90602001906020020151306040518463ffffffff167c010000000000000000000000000000000000000000000000000000000002815260040180846000191660001916815260200183600019166000191681526020018273ffffffffffffffffffffffffffffffffffffffff1673ffffffffffffffffffffffffffffffffffffffff1681526020019350505050600060405180830381600087803b15801561386757600080fd5b505af115801561387b573d6000803e3d6000fd5b5050505080828481518110151561388e57fe5b906020019060200201516040518083600019166000191681526020018260001916600019168152602001925050506040518091039020905060008311156138de576138dd600184038383613774565b5b6000809054906101000a900473ffffffffffffffffffffffffffffffffffffffff1673ffffffffffffffffffffffffffffffffffffffff16631896f70a8260006040518363ffffffff167c01000000000000000000000000000000000000000000000000000000000281526004018083600019166000191681526020018273ffffffffffffffffffffffffffffffffffffffff16815260200192505050600060405180830381600087803b15801561399557600080fd5b505af11580156139a9573d6000803e3d6000fd5b505050506000809054906101000a900473ffffffffffffffffffffffffffffffffffffffff1673ffffffffffffffffffffffffffffffffffffffff16635b0fc9c38260006040518363ffffffff167c01000000000000000000000000000000000000000000000000000000000281526004018083600019166000191681526020018273ffffffffffffffffffffffffffffffffffffffff16815260200192505050600060405180830381600087803b158015613a6457600080fd5b505af1158015613a78573d6000803e3d6000fd5b50505050505050565b6040516109af80613a9283390190560060806040526040516020806109af8339810180604052810190808051906020019092919050505080600160006101000a81548173ffffffffffffffffffffffffffffffffffffffff021916908373ffffffffffffffffffffffffffffffffffffffff160217905550336000806101000a81548173ffffffffffffffffffffffffffffffffffffffff021916908373ffffffffffffffffffffffffffffffffffffffff160217905550426003819055506001600560006101000a81548160ff02191690831515021790555034600481905550506108cf806100e06000396000f3006080604052600436106100a4576000357c0100000000000000000000000000000000000000000000000000000000900463ffffffff16806305b34410146100a95780630b5ab3d5146100d457806313af4035146100eb5780632b20e3971461012e5780633fa4f24514610185578063674f220f146101b05780638da5cb5b14610207578063b0c809721461025e578063bbe4277114610297578063faab9d39146102c4575b600080fd5b3480156100b557600080fd5b506100be610307565b6040518082815260200191505060405180910390f35b3480156100e057600080fd5b506100e961030d565b005b3480156100f757600080fd5b5061012c600480360381019080803573ffffffffffffffffffffffffffffffffffffffff1690602001909291905050506103b9565b005b34801561013a57600080fd5b50610143610544565b604051808273ffffffffffffffffffffffffffffffffffffffff1673ffffffffffffffffffffffffffffffffffffffff16815260200191505060405180910390f35b34801561019157600080fd5b5061019a610569565b6040518082815260200191505060405180910390f35b3480156101bc57600080fd5b506101c561056f565b604051808273ffffffffffffffffffffffffffffffffffffffff1673ffffffffffffffffffffffffffffffffffffffff16815260200191505060405180910390f35b34801561021357600080fd5b5061021c610595565b604051808273ffffffffffffffffffffffffffffffffffffffff1673ffffffffffffffffffffffffffffffffffffffff16815260200191505060405180910390f35b34801561026a57600080fd5b50610295600480360381019080803590602001909291908035151590602001909291905050506105bb565b005b3480156102a357600080fd5b506102c2600480360381019080803590602001909291905050506106d1565b005b3480156102d057600080fd5b50610305600480360381019080803573ffffffffffffffffffffffffffffffffffffffff169060200190929190505050610805565b005b60035481565b600560009054906101000a900460ff1615151561032957600080fd5b600160009054906101000a900473ffffffffffffffffffffffffffffffffffffffff1673ffffffffffffffffffffffffffffffffffffffff166108fc3073ffffffffffffffffffffffffffffffffffffffff16319081150290604051600060405180830381858888f19350505050156103b75761dead73ffffffffffffffffffffffffffffffffffffffff16ff5b565b6000809054906101000a900473ffffffffffffffffffffffffffffffffffffffff1673ffffffffffffffffffffffffffffffffffffffff163373ffffffffffffffffffffffffffffffffffffffff1614151561041457600080fd5b60008173ffffffffffffffffffffffffffffffffffffffff161415151561043a57600080fd5b600160009054906101000a900473ffffffffffffffffffffffffffffffffffffffff16600260006101000a81548173ffffffffffffffffffffffffffffffffffffffff021916908373ffffffffffffffffffffffffffffffffffffffff16021790555080600160006101000a81548173ffffffffffffffffffffffffffffffffffffffff021916908373ffffffffffffffffffffffffffffffffffffffff1602179055507fa2ea9883a321a3e97b8266c2b078bfeec6d50c711ed71f874a90d500ae2eaf3681604051808273ffffffffffffffffffffffffffffffffffffffff1673ffffffffffffffffffffffffffffffffffffffff16815260200191505060405180910390a150565b6000809054906101000a900473ffffffffffffffffffffffffffffffffffffffff1681565b60045481565b600260009054906101000a900473ffffffffffffffffffffffffffffffffffffffff1681565b600160009054906101000a900473ffffffffffffffffffffffffffffffffffffffff1681565b6000809054906101000a900473ffffffffffffffffffffffffffffffffffffffff1673ffffffffffffffffffffffffffffffffffffffff163373ffffffffffffffffffffffffffffffffffffffff1614151561061657600080fd5b600560009054906101000a900460ff16151561063157600080fd5b816004541015151561064257600080fd5b81600481905550600160009054906101000a900473ffffffffffffffffffffffffffffffffffffffff1673ffffffffffffffffffffffffffffffffffffffff166108fc833073ffffffffffffffffffffffffffffffffffffffff1631039081150290604051600060405180830381858888f19350505050806106c2575080155b15156106cd57600080fd5b5050565b6000809054906101000a900473ffffffffffffffffffffffffffffffffffffffff1673ffffffffffffffffffffffffffffffffffffffff163373ffffffffffffffffffffffffffffffffffffffff1614151561072c57600080fd5b600560009054906101000a900460ff16151561074757600080fd5b6000600560006101000a81548160ff02191690831515021790555061dead73ffffffffffffffffffffffffffffffffffffffff166108fc6103e83073ffffffffffffffffffffffffffffffffffffffff1631846103e803028115156107a857fe5b049081150290604051600060405180830381858888f1935050505015156107ce57600080fd5b7fbb2ce2f51803bba16bc85282b47deeea9a5c6223eabea1077be696b3f265cf1360405160405180910390a161080261030d565b50565b6000809054906101000a900473ffffffffffffffffffffffffffffffffffffffff1673ffffffffffffffffffffffffffffffffffffffff163373ffffffffffffffffffffffffffffffffffffffff1614151561086057600080fd5b806000806101000a81548173ffffffffffffffffffffffffffffffffffffffff021916908373ffffffffffffffffffffffffffffffffffffffff160217905550505600a165627a7a72305820ef10a2879d9a6d3a3b6197ecc8f829a16a61a509bf90aca799a47175c74a25050029a165627a7a72305820d5425a23a92bfbcb55581f5a562754e2f812ffc96dc93fc73d3bb081279ab8820029",
  "source": "pragma solidity ^0.4.18;\n\n\n/*\n\nTemporary Hash Registrar\n========================\n\nThis is a simplified version of a hash registrar. It is purporsefully limited:\nnames cannot be six letters or shorter, new auctions will stop after 4 years.\n\nThe plan is to test the basic features and then move to a new contract in at most\n2 years, when some sort of renewal mechanism will be enabled.\n*/\n\n\nimport './ENS.sol';\nimport './Deed.sol';\n\n/**\n * @title Registrar\n * @dev The registrar handles the auction process for each subnode of the node it owns.\n */\ncontract Registrar {\n    ENS public ens;\n    bytes32 public rootNode;\n\n    mapping (bytes32 => Entry) _entries;\n    mapping (address => mapping (bytes32 => Deed)) public sealedBids;\n    \n    enum Mode { Open, Auction, Owned, Forbidden, Reveal, NotYetAvailable }\n\n    uint32 constant totalAuctionLength = 5 days;\n    uint32 constant revealPeriod = 48 hours;\n    uint32 public constant launchLength = 8 weeks;\n\n    uint constant minPrice = 0.01 ether;\n    uint public registryStarted;\n\n    event AuctionStarted(bytes32 indexed hash, uint registrationDate);\n    event NewBid(bytes32 indexed hash, address indexed bidder, uint deposit);\n    event BidRevealed(bytes32 indexed hash, address indexed owner, uint value, uint8 status);\n    event HashRegistered(bytes32 indexed hash, address indexed owner, uint value, uint registrationDate);\n    event HashReleased(bytes32 indexed hash, uint value);\n    event HashInvalidated(bytes32 indexed hash, string indexed name, uint value, uint registrationDate);\n\n    struct Entry {\n        Deed deed;\n        uint registrationDate;\n        uint value;\n        uint highestBid;\n    }\n\n    modifier inState(bytes32 _hash, Mode _state) {\n        require(state(_hash) == _state);\n        _;\n    }\n\n    modifier onlyOwner(bytes32 _hash) {\n        require(state(_hash) == Mode.Owned && msg.sender == _entries[_hash].deed.owner());\n        _;\n    }\n\n    modifier registryOpen() {\n        require(now >= registryStarted && now <= registryStarted + 4 years && ens.owner(rootNode) == address(this));\n        _;\n    }\n\n    /**\n     * @dev Constructs a new Registrar, with the provided address as the owner of the root node.\n     *\n     * @param _ens The address of the ENS\n     * @param _rootNode The hash of the rootnode.\n     */\n    function Registrar(ENS _ens, bytes32 _rootNode, uint _startDate) public {\n        ens = _ens;\n        rootNode = _rootNode;\n        registryStarted = _startDate > 0 ? _startDate : now;\n    }\n\n    /**\n     * @dev Start an auction for an available hash\n     *\n     * @param _hash The hash to start an auction on\n     */\n    function startAuction(bytes32 _hash) public registryOpen() {\n        Mode mode = state(_hash);\n        if (mode == Mode.Auction) return;\n        require(mode == Mode.Open);\n\n        Entry storage newAuction = _entries[_hash];\n        newAuction.registrationDate = now + totalAuctionLength;\n        newAuction.value = 0;\n        newAuction.highestBid = 0;\n        AuctionStarted(_hash, newAuction.registrationDate);\n    }\n\n    /**\n     * @dev Start multiple auctions for better anonymity\n     *\n     * Anyone can start an auction by sending an array of hashes that they want to bid for.\n     * Arrays are sent so that someone can open up an auction for X dummy hashes when they\n     * are only really interested in bidding for one. This will increase the cost for an\n     * attacker to simply bid blindly on all new auctions. Dummy auctions that are\n     * open but not bid on are closed after a week.\n     *\n     * @param _hashes An array of hashes, at least one of which you presumably want to bid on\n     */\n    function startAuctions(bytes32[] _hashes) public {\n        for (uint i = 0; i < _hashes.length; i ++) {\n            startAuction(_hashes[i]);\n        }\n    }\n\n    /**\n     * @dev Submit a new sealed bid on a desired hash in a blind auction\n     *\n     * Bids are sent by sending a message to the main contract with a hash and an amount. The hash\n     * contains information about the bid, including the bidded hash, the bid amount, and a random\n     * salt. Bids are not tied to any one auction until they are revealed. The value of the bid\n     * itself can be masqueraded by sending more than the value of your actual bid. This is\n     * followed by a 48h reveal period. Bids revealed after this period will be burned and the ether unrecoverable.\n     * Since this is an auction, it is expected that most public hashes, like known domains and common dictionary\n     * words, will have multiple bidders pushing the price up.\n     *\n     * @param sealedBid A sealedBid, created by the shaBid function\n     */\n    function newBid(bytes32 sealedBid) public payable {\n        require(address(sealedBids[msg.sender][sealedBid]) == 0x0);\n        require(msg.value >= minPrice);\n\n        // Creates a new hash contract with the owner\n        Deed newBid = (new Deed).value(msg.value)(msg.sender);\n        sealedBids[msg.sender][sealedBid] = newBid;\n        NewBid(sealedBid, msg.sender, msg.value);\n    }\n\n    /**\n     * @dev Start a set of auctions and bid on one of them\n     *\n     * This method functions identically to calling `startAuctions` followed by `newBid`,\n     * but all in one transaction.\n     *\n     * @param hashes A list of hashes to start auctions on.\n     * @param sealedBid A sealed bid for one of the auctions.\n     */\n    function startAuctionsAndBid(bytes32[] hashes, bytes32 sealedBid) public payable {\n        startAuctions(hashes);\n        newBid(sealedBid);\n    }\n\n    /**\n     * @dev Submit the properties of a bid to reveal them\n     *\n     * @param _hash The node in the sealedBid\n     * @param _value The bid amount in the sealedBid\n     * @param _salt The sale in the sealedBid\n     */\n    function unsealBid(bytes32 _hash, uint _value, bytes32 _salt) public {\n        bytes32 seal = shaBid(_hash, msg.sender, _value, _salt);\n        Deed bid = sealedBids[msg.sender][seal];\n        require(address(bid) != 0);\n\n        sealedBids[msg.sender][seal] = Deed(0);\n        Entry storage h = _entries[_hash];\n        uint value = min(_value, bid.value());\n        bid.setBalance(value, true);\n\n        var auctionState = state(_hash);\n        if (auctionState == Mode.Owned) {\n            // Too late! Bidder loses their bid. Gets 0.5% back.\n            bid.closeDeed(5);\n            BidRevealed(_hash, msg.sender, value, 1);\n        } else if (auctionState != Mode.Reveal) {\n            // Invalid phase\n            revert();\n        } else if (value < minPrice || bid.creationDate() > h.registrationDate - revealPeriod) {\n            // Bid too low or too late, refund 99.5%\n            bid.closeDeed(995);\n            BidRevealed(_hash, msg.sender, value, 0);\n        } else if (value > h.highestBid) {\n            // New winner\n            // Cancel the other bid, refund 99.5%\n            if (address(h.deed) != 0) {\n                Deed previousWinner = h.deed;\n                previousWinner.closeDeed(995);\n            }\n\n            // Set new winner\n            // Per the rules of a vickery auction, the value becomes the previous highestBid\n            h.value = h.highestBid;  // will be zero if there's only 1 bidder\n            h.highestBid = value;\n            h.deed = bid;\n            BidRevealed(_hash, msg.sender, value, 2);\n        } else if (value > h.value) {\n            // Not winner, but affects second place\n            h.value = value;\n            bid.closeDeed(995);\n            BidRevealed(_hash, msg.sender, value, 3);\n        } else {\n            // Bid doesn't affect auction\n            bid.closeDeed(995);\n            BidRevealed(_hash, msg.sender, value, 4);\n        }\n    }\n\n    /**\n     * @dev Cancel a bid\n     *\n     * @param seal The value returned by the shaBid function\n     */\n    function cancelBid(address bidder, bytes32 seal) public {\n        Deed bid = sealedBids[bidder][seal];\n        \n        // If a sole bidder does not `unsealBid` in time, they have a few more days\n        // where they can call `startAuction` (again) and then `unsealBid` during\n        // the revealPeriod to get back their bid value.\n        // For simplicity, they should call `startAuction` within\n        // 9 days (2 weeks - totalAuctionLength), otherwise their bid will be\n        // cancellable by anyone.\n        require(address(bid) != 0 && now >= bid.creationDate() + totalAuctionLength + 2 weeks);\n\n        // Send the canceller 0.5% of the bid, and burn the rest.\n        bid.setOwner(msg.sender);\n        bid.closeDeed(5);\n        sealedBids[bidder][seal] = Deed(0);\n        BidRevealed(seal, bidder, 0, 5);\n    }\n\n    /**\n     * @dev Finalize an auction after the registration date has passed\n     *\n     * @param _hash The hash of the name the auction is for\n     */\n    function finalizeAuction(bytes32 _hash) public onlyOwner(_hash) {\n        Entry storage h = _entries[_hash];\n        \n        // Handles the case when there's only a single bidder (h.value is zero)\n        h.value =  max(h.value, minPrice);\n        h.deed.setBalance(h.value, true);\n\n        trySetSubnodeOwner(_hash, h.deed.owner());\n        HashRegistered(_hash, h.deed.owner(), h.value, h.registrationDate);\n    }\n\n    /**\n     * @dev The owner of a domain may transfer it to someone else at any time.\n     *\n     * @param _hash The node to transfer\n     * @param newOwner The address to transfer ownership to\n     */\n    function transfer(bytes32 _hash, address newOwner) public onlyOwner(_hash) {\n        require(newOwner != 0);\n\n        Entry storage h = _entries[_hash];\n        h.deed.setOwner(newOwner);\n        trySetSubnodeOwner(_hash, newOwner);\n    }\n\n    /**\n     * @dev After some time, or if we're no longer the registrar, the owner can release\n     *      the name and get their ether back.\n     *\n     * @param _hash The node to release\n     */\n    function releaseDeed(bytes32 _hash) public onlyOwner(_hash) {\n        Entry storage h = _entries[_hash];\n        Deed deedContract = h.deed;\n\n        require(now >= h.registrationDate + 1 years || ens.owner(rootNode) != address(this));\n\n        h.value = 0;\n        h.highestBid = 0;\n        h.deed = Deed(0);\n\n        _tryEraseSingleNode(_hash);\n        deedContract.closeDeed(1000);\n        HashReleased(_hash, h.value);        \n    }\n\n    /**\n     * @dev Submit a name 6 characters long or less. If it has been registered,\n     *      the submitter will earn 50% of the deed value. \n     * \n     * We are purposefully handicapping the simplified registrar as a way \n     * to force it into being restructured in a few years.\n     *\n     * @param unhashedName An invalid name to search for in the registry.\n     */\n    function invalidateName(string unhashedName) public inState(keccak256(unhashedName), Mode.Owned) {\n        require(strlen(unhashedName) <= 6);\n        bytes32 hash = keccak256(unhashedName);\n\n        Entry storage h = _entries[hash];\n\n        _tryEraseSingleNode(hash);\n\n        if (address(h.deed) != 0) {\n            // Reward the discoverer with 50% of the deed\n            // The previous owner gets 50%\n            h.value = max(h.value, minPrice);\n            h.deed.setBalance(h.value/2, false);\n            h.deed.setOwner(msg.sender);\n            h.deed.closeDeed(1000);\n        }\n\n        HashInvalidated(hash, unhashedName, h.value, h.registrationDate);\n\n        h.value = 0;\n        h.highestBid = 0;\n        h.deed = Deed(0);\n    }\n\n    /**\n     * @dev Allows anyone to delete the owner and resolver records for a (subdomain of) a\n     *      name that is not currently owned in the registrar. If passing, eg, 'foo.bar.eth',\n     *      the owner and resolver fields on 'foo.bar.eth' and 'bar.eth' will all be cleared.\n     *\n     * @param labels A series of label hashes identifying the name to zero out, rooted at the\n     *        registrar's root. Must contain at least one element. For instance, to zero \n     *        'foo.bar.eth' on a registrar that owns '.eth', pass an array containing\n     *        [keccak256('foo'), keccak256('bar')].\n     */\n    function eraseNode(bytes32[] labels) public {\n        require(labels.length != 0);\n        require(state(labels[labels.length - 1]) != Mode.Owned);\n\n        _eraseNodeHierarchy(labels.length - 1, labels, rootNode);\n    }\n\n    /**\n     * @dev Transfers the deed to the current registrar, if different from this one.\n     *\n     * Used during the upgrade process to a permanent registrar.\n     *\n     * @param _hash The name hash to transfer.\n     */\n    function transferRegistrars(bytes32 _hash) public onlyOwner(_hash) {\n        address registrar = ens.owner(rootNode);\n        require(registrar != address(this));\n\n        // Migrate the deed\n        Entry storage h = _entries[_hash];\n        h.deed.setRegistrar(registrar);\n\n        // Call the new registrar to accept the transfer\n        Registrar(registrar).acceptRegistrarTransfer(_hash, h.deed, h.registrationDate);\n\n        // Zero out the Entry\n        h.deed = Deed(0);\n        h.registrationDate = 0;\n        h.value = 0;\n        h.highestBid = 0;\n    }\n\n    /**\n     * @dev Accepts a transfer from a previous registrar; stubbed out here since there\n     *      is no previous registrar implementing this interface.\n     *\n     * @param hash The sha3 hash of the label to transfer.\n     * @param deed The Deed object for the name being transferred in.\n     * @param registrationDate The date at which the name was originally registered.\n     */\n    function acceptRegistrarTransfer(bytes32 hash, Deed deed, uint registrationDate) public {\n        hash; deed; registrationDate; // Don't warn about unused variables\n    }\n\n    // State transitions for names:\n    //   Open -> Auction (startAuction)\n    //   Auction -> Reveal\n    //   Reveal -> Owned\n    //   Reveal -> Open (if nobody bid)\n    //   Owned -> Open (releaseDeed or invalidateName)\n    function state(bytes32 _hash) public view returns (Mode) {\n        Entry storage entry = _entries[_hash];\n\n        if (!isAllowed(_hash, now)) {\n            return Mode.NotYetAvailable;\n        } else if (now < entry.registrationDate) {\n            if (now < entry.registrationDate - revealPeriod) {\n                return Mode.Auction;\n            } else {\n                return Mode.Reveal;\n            }\n        } else {\n            if (entry.highestBid == 0) {\n                return Mode.Open;\n            } else {\n                return Mode.Owned;\n            }\n        }\n    }\n\n    function entries(bytes32 _hash) public view returns (Mode, address, uint, uint, uint) {\n        Entry storage h = _entries[_hash];\n        return (state(_hash), h.deed, h.registrationDate, h.value, h.highestBid);\n    }\n\n    /**\n     * @dev Determines if a name is available for registration yet\n     *\n     * Each name will be assigned a random date in which its auction\n     * can be started, from 0 to 8 weeks\n     *\n     * @param _hash The hash to start an auction on\n     * @param _timestamp The timestamp to query about\n     */\n    function isAllowed(bytes32 _hash, uint _timestamp) public view returns (bool allowed) {\n        return _timestamp > getAllowedTime(_hash);\n    }\n\n    /**\n     * @dev Returns available date for hash\n     *\n     * The available time from the `registryStarted` for a hash is proportional\n     * to its numeric value.\n     *\n     * @param _hash The hash to start an auction on\n     */\n    function getAllowedTime(bytes32 _hash) public view returns (uint) {\n        return registryStarted + ((launchLength * (uint(_hash) >> 128)) >> 128);\n        // Right shift operator: a >> b == a / 2**b\n    }\n\n    /**\n     * @dev Hash the values required for a secret bid\n     *\n     * @param hash The node corresponding to the desired namehash\n     * @param value The bid amount\n     * @param salt A random value to ensure secrecy of the bid\n     * @return The hash of the bid values\n     */\n    function shaBid(bytes32 hash, address owner, uint value, bytes32 salt) public pure returns (bytes32) {\n        return keccak256(hash, owner, value, salt);\n    }\n\n    function _tryEraseSingleNode(bytes32 label) internal {\n        if (ens.owner(rootNode) == address(this)) {\n            ens.setSubnodeOwner(rootNode, label, address(this));\n            bytes32 node = keccak256(rootNode, label);\n            ens.setResolver(node, 0);\n            ens.setOwner(node, 0);\n        }\n    }\n\n    function _eraseNodeHierarchy(uint idx, bytes32[] labels, bytes32 node) internal {\n        // Take ownership of the node\n        ens.setSubnodeOwner(node, labels[idx], address(this));\n        node = keccak256(node, labels[idx]);\n\n        // Recurse if there are more labels\n        if (idx > 0) {\n            _eraseNodeHierarchy(idx - 1, labels, node);\n        }\n\n        // Erase the resolver and owner records\n        ens.setResolver(node, 0);\n        ens.setOwner(node, 0);\n    }\n\n    /**\n     * @dev Assign the owner in ENS, if we're still the registrar\n     *\n     * @param _hash hash to change owner\n     * @param _newOwner new owner to transfer to\n     */\n    function trySetSubnodeOwner(bytes32 _hash, address _newOwner) internal {\n        if (ens.owner(rootNode) == address(this))\n            ens.setSubnodeOwner(rootNode, _hash, _newOwner);\n    }\n\n    /**\n     * @dev Returns the maximum of two unsigned integers\n     *\n     * @param a A number to compare\n     * @param b A number to compare\n     * @return The maximum of two unsigned integers\n     */\n    function max(uint a, uint b) internal pure returns (uint) {\n        if (a > b)\n            return a;\n        else\n            return b;\n    }\n\n    /**\n     * @dev Returns the minimum of two unsigned integers\n     *\n     * @param a A number to compare\n     * @param b A number to compare\n     * @return The minimum of two unsigned integers\n     */\n    function min(uint a, uint b) internal pure returns (uint) {\n        if (a < b)\n            return a;\n        else\n            return b;\n    }\n\n    /**\n     * @dev Returns the length of a given string\n     *\n     * @param s The string to measure the length of\n     * @return The length of the input string\n     */\n    function strlen(string s) internal pure returns (uint) {\n        s; // Don't warn about unused variables\n        // Starting here means the LSB will be the byte we care about\n        uint ptr;\n        uint end;\n        assembly {\n            ptr := add(s, 1)\n            end := add(mload(s), ptr)\n        }\n        for (uint len = 0; ptr < end; len++) {\n            uint8 b;\n            assembly { b := and(mload(ptr), 0xFF) }\n            if (b < 0x80) {\n                ptr += 1;\n            } else if (b < 0xE0) {\n                ptr += 2;\n            } else if (b < 0xF0) {\n                ptr += 3;\n            } else if (b < 0xF8) {\n                ptr += 4;\n            } else if (b < 0xFC) {\n                ptr += 5;\n            } else {\n                ptr += 6;\n            }\n        }\n        return len;\n    }\n\n}\n",
  "sourcePath": "/Users/billy/sol/ens/ens-nifty-contracts/contracts/@ensdomains/ens/contracts/HashRegistrarSimplified.sol",
  "compiler": {
    "name": "solc",
    "version": "0.4.24+commit.e67f0147.Emscripten.clang"
  },
  "schemaVersion": "2.0.1",
  "updatedAt": "2018-09-20T20:19:59.856Z"
}