{
  "contractName": "TestRegistrar",
  "abi": [
    {
      "constant": true,
      "inputs": [],
      "name": "ens",
      "outputs": [
        {
          "name": "",
          "type": "address"
        }
      ],
      "payable": false,
      "stateMutability": "view",
      "type": "function"
    },
    {
      "constant": true,
      "inputs": [
        {
          "name": "",
          "type": "bytes32"
        }
      ],
      "name": "expiryTimes",
      "outputs": [
        {
          "name": "",
          "type": "uint256"
        }
      ],
      "payable": false,
      "stateMutability": "view",
      "type": "function"
    },
    {
      "constant": true,
      "inputs": [],
      "name": "rootNode",
      "outputs": [
        {
          "name": "",
          "type": "bytes32"
        }
      ],
      "payable": false,
      "stateMutability": "view",
      "type": "function"
    },
    {
      "inputs": [
        {
          "name": "ensAddr",
          "type": "address"
        },
        {
          "name": "node",
          "type": "bytes32"
        }
      ],
      "payable": false,
      "stateMutability": "nonpayable",
      "type": "constructor"
    },
    {
      "constant": false,
      "inputs": [
        {
          "name": "subnode",
          "type": "bytes32"
        },
        {
          "name": "owner",
          "type": "address"
        }
      ],
      "name": "register",
      "outputs": [],
      "payable": false,
      "stateMutability": "nonpayable",
      "type": "function"
    }
  ],
  "bytecode": "0x608060405234801561001057600080fd5b506040516040806103d78339810180604052810190808051906020019092919080519060200190929190505050816000806101000a81548173ffffffffffffffffffffffffffffffffffffffff021916908373ffffffffffffffffffffffffffffffffffffffff1602179055508060018160001916905550505061033e806100996000396000f300608060405260043610610062576000357c0100000000000000000000000000000000000000000000000000000000900463ffffffff1680633f15457f14610067578063af9f26e4146100be578063d22057a914610103578063faff50a814610154575b600080fd5b34801561007357600080fd5b5061007c610187565b604051808273ffffffffffffffffffffffffffffffffffffffff1673ffffffffffffffffffffffffffffffffffffffff16815260200191505060405180910390f35b3480156100ca57600080fd5b506100ed60048036038101908080356000191690602001909291905050506101ac565b6040518082815260200191505060405180910390f35b34801561010f57600080fd5b506101526004803603810190808035600019169060200190929190803573ffffffffffffffffffffffffffffffffffffffff1690602001909291905050506101c4565b005b34801561016057600080fd5b5061016961030c565b60405180826000191660001916815260200191505060405180910390f35b6000809054906101000a900473ffffffffffffffffffffffffffffffffffffffff1681565b60026020528060005260406000206000915090505481565b42600260008460001916600019168152602001908152602001600020541015156101ed57600080fd5b6224ea004201600260008460001916600019168152602001908152602001600020819055506000809054906101000a900473ffffffffffffffffffffffffffffffffffffffff1673ffffffffffffffffffffffffffffffffffffffff166306ab592360015484846040518463ffffffff167c010000000000000000000000000000000000000000000000000000000002815260040180846000191660001916815260200183600019166000191681526020018273ffffffffffffffffffffffffffffffffffffffff1673ffffffffffffffffffffffffffffffffffffffff1681526020019350505050600060405180830381600087803b1580156102f057600080fd5b505af1158015610304573d6000803e3d6000fd5b505050505050565b600154815600a165627a7a72305820ddb1eb6fca89c7a41b1637da448060e0cf00f0235c64df70c3120960beee5e0d0029",
  "source": "pragma solidity ^0.4.18;\n\nimport './ENS.sol';\n\n/**\n * A registrar that allocates subdomains to the first person to claim them, but\n * expires registrations a fixed period after they're initially claimed.\n */\ncontract TestRegistrar {\n    uint constant registrationPeriod = 4 weeks;\n\n    ENS public ens;\n    bytes32 public rootNode;\n    mapping (bytes32 => uint) public expiryTimes;\n\n    /**\n     * Constructor.\n     * @param ensAddr The address of the ENS registry.\n     * @param node The node that this registrar administers.\n     */\n    function TestRegistrar(ENS ensAddr, bytes32 node) public {\n        ens = ensAddr;\n        rootNode = node;\n    }\n\n    /**\n     * Register a name that's not currently registered\n     * @param subnode The hash of the label to register.\n     * @param owner The address of the new owner.\n     */\n    function register(bytes32 subnode, address owner) public {\n        require(expiryTimes[subnode] < now);\n\n        expiryTimes[subnode] = now + registrationPeriod;\n        ens.setSubnodeOwner(rootNode, subnode, owner);\n    }\n}\n",
  "sourcePath": "/Users/billy/sol/ens/ens-nifty-contracts/contracts/@ensdomains/ens/contracts/TestRegistrar.sol",
  "compiler": {
    "name": "solc",
    "version": "0.4.24+commit.e67f0147.Emscripten.clang"
  },
  "schemaVersion": "2.0.1",
  "updatedAt": "2018-09-20T20:19:59.845Z"
}